:02000002B0004C
:1040000000400B00B2840B00000006000C0005020B
:084010000401D51700000000B7
:04401800287D0B00F4
:10401C0010F8012B11F8013B012A28BF9A42F7D066
:10402C00D01A7047034613F8012B002AFBD1181A3B
:10403C000138704709480A49884208B505D0094A31
:10404C00824202D0121A03F0B3FC0748074A00213F
:10405C00121A03F0D5FC014808BD00BF4CDD03204B
:10406C00F8830B00D8DD0320D8DD0320FCE7032008
:10407C0070B5074E074C03F069FAA41BA408002581
:10408C00AC4200D170BD56F8043B98470135F7E7B8
:10409C00AC830B00D4830B0000F0B2B908B500F070
:1040AC00E9F9BDE8084003F009BA00F053BD00F08F
:1040BC0051BD00F057BD000008B5034A03490C2060
:1040CC0000F06CFCFEE700BFF9460B003C7D0B00DA
:1040DC000078B0FA80F040097047012303707047F4
:1040EC0010B5044603F088F8204610BD38B50446D8
:1040FC00154602F05BFC0549204602F057FC2946A8
:10410C002046BDE8384002F064BC00BFFC7E0B00CA
:10411C0038B50546144602F049FC0B49284602F016
:10412C0045FC002C0DDA2D21284602F043FC61429F
:10413C0028460A2202F057FC2846BDE8384002F017
:10414C003CBC2146F4E700BFFC7E0B00014B002277
:10415C001A707047D8DD03202DE9F04F0E468FB052
:10416C001F464FF0FF331360044600213046DDF844
:10417C006090904602F044FDD6F838E0034698B9BA
:10418C00BEF1000F14BF72465022316892B2204625
:10419C0002F036FE051E18BF0125C5B920460FB02A
:1041AC00BDE8F04F02F0DEBF794B059306F1140C1D
:1041BC00BCE80F0006AD0FC5DCF800302B701FFA01
:1041CC008EF2002305A9204602F0FAFEE2E74946EA
:1041DC00204602F0EBFB6F49204602F0E7FBB16A88
:1041EC00204602F0E3FB6C49204602F0DFFB6B49F2
:1041FC006B4A2046FFF77AFF0021304602F000FDA3
:10420C0020B9326867492046FFF770FF06F13C0A77
:10421C000021504602F0F4FC28B9726C6249204629
:10422C00FFF776FF06E061494846FFF7F1FE0246CC
:10423C000028F3D05FB1396849B17A6820461AB1C9
:10424C00FFF754FF0837F6E702F0C3FBFAE7204606
:10425C0002F0B3FB204602F033FD0021504602F081
:10426C00CFFC0246F0B9524B1B788DF80030F16B45
:10427C003C2305A800F058FE069F7FB17B68013BEC
:10428C007B605BB93B6838469B689847BB68013BD1
:10429C00BB601BB93B683846DB689847F16B20461E
:1042AC0002F097FB2122002105A803F0A9FB00F0E6
:1042BC0025FAB6F84C90029041F288330027B9F1F8
:1042CC00000F08BF9946AA463E46204602F0F0FE73
:1042DC0000285BD0204602F0D9FC5FFA80FB00F08E
:1042EC000DFA0290BAF1000F17D0BBF10A0F10D1E2
:1042FC000A2F1AD10DF11D0003F04EFB4FF0000AEE
:10430C00C8F800002122002105A803F079FB5646CD
:10431C00DBE7BBF10D0F18BF5F461F2E07D80EABA6
:10432C00334403F824BC0136CFE75F46F5E7202E73
:10433C00F9D14FF0000320468DF8343002F012FF13
:10434C00AB4600F0DBF9029BC31A0393BBF1000FE1
:10435C0004D14B4502D8C82000F044FC204602F0A2
:10436C00CDFD28B1039B4B4502D8BBF1000FACD05F
:10437C00204602F0F7FEBAF1000F04D105A908F1AE
:10438C00040002F02BFC0FB0BDE8F08F8346D8E799
:10439C00907E0B00F87E0B00517D0B00637D0B00B3
:1043AC005D7D0B006E7D0B00737D0B00827D0B0021
:1043BC00D8DD0320704700000A4B10B5044603609B
:1043CC0001F0FCFB214601F046FE02F0F1FF02F089
:1043DC00E3FF2046044B40F8043B01F0C5FC2046AB
:1043EC0010BD00BFB87D0B00A07D0B0010B50446BE
:1043FC00FFF7E2FF20462421FFF75BFE204610BDAD
:10440C0008B502F0D5FFBDE808404FF4165102F094
:10441C00BFBF000070B5134E134C4FF4806586B0CF
:10442C002A460021304603F0EBFA122003F0FEF886
:10443C0000230E4A206001A88DF8083005930192E4
:10444C00CDE9036501F051F90522094901A801F0F4
:10445C00DBF9216801F056F901A801F030F9039855
:10446C0006B070BDE8DD03208CE60320B07E0B00A7
:10447C00877D0B0013B50F4C0F49204602F0AEFBA5
:10448C0041F28833A363FFF7C5FF014604F13C00FA
:10449C0002F0A4FB094B0093094A0A4B0A48214637
:1044AC00FFF75AFE4FF47A7002B0BDE8104000F0EE
:1044BC0099BB00BF28E603208D7D0B00827D0B008D
:1044CC0078E603204CDD0320E8E1032070B5D0E949
:1044DC0000531426044606FB0356AE4204D028466D
:1044EC0002F0DAFA1435F8E7206800F03BFB2046BE
:1044FC0070BD8842F8B504460D46164616D9904252
:10450C0015D2A2F11406751AA1F114072C44B74266
:10451C001CD02CB13146204602F03BFB337C23747B
:10452C00304602F0B9FA143E143CF0E70ED0B54216
:10453C000CD02CB12946204602F02BFB2B7C23748B
:10454C00284602F0A9FA14351434F0E7F8BD2DE929
:10455C00F0410023C0E9003383604F689F4204465A
:10456C000E4623DD4FF0140808FB07F000F0F2FABA
:10457C000546D8B1D4E9001208FB0212FFF7B9FFC7
:10458C00206800F0EFFA2560A760D6E9007308FBFD
:10459C000378B84508D03946284602F014FB3B7C1A
:1045AC002B7414371435F4E7736863602046BDE848
:1045BC00F081000070B52F4C2F488CB0FFF790FDA8
:1045CC002E49204602F0B3FA04F1100000F0DAFE96
:1045DC002A4904F1280002F0AAFA284904F13C0007
:1045EC0002F0A5FA2549264802F0A1FA254B264AE5
:1045FC009A600024C3E90044012000F0EFF9CDE9F2
:10460C000044029402F0D4FE204C0546694603A8EF
:10461C00FFF79DFF264603A906A8FFF798FF1C4B42
:10462C0046F8043B06A909A8FFF791FF09AA1E2129
:10463C00304601F0B1FD09A8FFF748FF06A8FFF7C7
:10464C0045FF144B2360256203A8FFF73FFF124B75
:10465C00236002F0ADFE4FF4165102F099FE01F00A
:10466C00ADFA214601F0B0FC6846FFF72FFF0CB005
:10467C0070BD00BF28E60320E8E103205C7D0B0041
:10468C007CE60320DCDD03200000FFFF04E60320B2
:10469C00A07D0B00507F0B00B87D0B0008B5024BC2
:1046AC001B685B6C019308BD4802030008B5024B04
:1046BC001B689B6C019308BD4802030008B5024BB4
:1046CC001B68DB6C019308BD4802030008B5024B64
:1046DC001B685B6D019308BD4802030008B5024BD3
:1046EC001B685B68019308BD1802030008B5024BF8
:1046FC001B68DB68019308BD1802030008B5024B68
:10470C001B685B69019308BD1802030008B5024BD6
:10471C001B685B68019308BD2C02030008B5024BB3
:10472C001B681B6B019308BD2C02030008B5024BE0
:10473C001B681B6A019308BD2802030008B5024BD5
:10474C001B685B6A019308BD2802030008B5024B85
:10475C001B689B6A019308BD2802030008B5024B35
:10476C001B68DB6A019308BD2802030008B5024BE5
:10477C001B681B6B019308BD2802030008B5024B94
:10478C001B685B6B019308BD2802030008B5024B44
:10479C001B681B6C019308BD2802030008B5024B73
:1047AC001B685B69019308BD6C02030008B5024BE2
:1047BC001B685B69019308BD6402030008B5024BDA
:1047CC001B681B6A019308BD6402030008B5024B09
:1047DC001B689B6A019308BD6402030008B5024B79
:1047EC001B689B68019308BD6802030008B5024B67
:1047FC001B68DB68019308BD6802030008B5024B17
:10480C001B689B69019308BD3802030008B5024B75
:10481C001B68DB69019308BD3802030008B5024B25
:10482C001B681B6A019308BD3802030008B5024BD4
:10483C001B689B6A019308BD3802030008B5024B44
:10484C001B681B6B019308BD3802030008B5024BB3
:10485C001B689B6B019308BD3802030008B5024B23
:10486C001B68DB69019308BD3002030008B5024BDD
:10487C001B681B6A019308BD3002030008B5024B8C
:10488C001B689B68019308BD3C02030008B5024BF2
:10489C001B68DB68019308BD3C02030008B5024BA2
:1048AC001B681B69019308BD3C02030008B5024B51
:1048BC001B685B69019308BD3C02030008B5024B01
:1048CC001B689B69019308BD3C02030008B5024BB1
:1048DC001B68DB69019308BD3C02030008B5024B61
:1048EC001B681B6A019308BD3C02030008B5024B10
:1048FC001B689B6A019308BD3C02030008B5024B80
:10490C001B68DB6A019308BD3C02030008B5024B2F
:10491C001B681B6C019308BD3C02030008B5024BDD
:10492C001B681B68019308BD4C02030008B5024BC1
:10493C001B685B68019308BD4C02030008B5024B71
:10494C001B689B68019308BD4C02030008B5024B21
:10495C001B681B69019308BD4C02030008B5024B90
:10496C001B685B69019308BD4C02030008B5024B40
:10497C001B689B69019308BD4C02030008B5024BF0
:10498C001B68DB69019308BD4C02030008B5024BA0
:10499C001B681B6A019308BD4C02030008B5024B4F
:1049AC001B685B6B019308BD6002030008B5024BEA
:1049BC001B681B6D019308BD6002030008B5024B18
:1049CC001B68DB6E019308BD6002030008B5024B47
:1049DC001B681B6F019308BD6002030008B5024BF6
:1049EC001B685B68019308BD2002030008B5024BED
:1049FC001B685B69019308BD2002030008B5024BDC
:104A0C001B68DB6C019308BD2002030008B5024B48
:104A1C001B685B6D019308BD2002030008B5034BB6
:104A2C001B68D3F88830019308BD000020020300F6
:104A3C0008B5034B1B68D3F89430019308BD0000F4
:104A4C002002030008B5024B1B685B69019308BD8B
:104A5C004402030008B5024B1B681B6A019308BD96
:104A6C004402030008B5024B1B68DB6B019308BDC5
:104A7C004402030008B5024B1B685B68019308BD38
:104A8C004002030008B5024B1B689B68019308BDEC
:104A9C004002030008B5024B1B68DB68019308BD9C
:104AAC004002030008B5024B1B681B69019308BD4B
:104ABC004002030008B5024B1B685B69019308BDFB
:104ACC004002030008B5024B1B689B69019308BDAB
:104ADC004002030008B5024B1B68DB69019308BD5B
:104AEC004002030008B5024B1B681B6A019308BD0A
:104AFC004002030008B5024B1B681B6B019308BDF9
:104B0C004002030008B5024B1B685B6B019308BDA8
:104B1C004002030008B5024B1B681B6C019308BDD7
:104B2C004002030008B5024B1B685B6C019308BD87
:104B3C004002030008B5024B1B685B6D019308BD76
:104B4C004002030008B5024B1B689B6D019308BD26
:104B5C004002030008B5024B1B681B68019308BD9B
:104B6C001C02030008B5024B1B685B68019308BD6F
:104B7C001C02030008B5024B1B689B68019308BD1F
:104B8C001C02030008B5024B1B685B6A019308BD4D
:104B9C001C02030008B5024B1B68DB6A019308BDBD
:104BAC001C02030008B5024B1B681B6B019308BD6C
:104BBC001C02030008B5024B1B68DB6B019308BD9C
:104BCC001C02030008B5024B1B681B6C019308BD4B
:104BDC001C02030008B5024B1B685B6C019308BDFB
:104BEC001C0203000021FFF701BF38B5046805461D
:104BFC007CB16368013B63605BB9236820469B68AA
:104C0C009847A368013BA3601BB923682046DB6867
:104C1C009847284638BD10B5836804460BB902F096
:104C2C009FFDC3689847A3681BB103222146204609
:104C3C00984720461021BDE81040FFF73ABA10B54E
:104C4C008368044613B1032201469847204610BDE1
:104C5C0010B54368013B0446436063B903689B6825
:104C6C009847A368013BA3602BB923682046DB68F7
:104C7C00BDE81040184710BD70B5D0E9005304468C
:104C8C0005EB0316AE4204D0284601F005FF1035A3
:104C9C00F8E72068FFF766FF204670BD13B50B469A
:104CAC000246D0E900016C4684E8030093E8030057
:104CBC0082E8030094E8030083E8030002B010BD0F
:104CCC00024800230360FFF7E9BC00BF90E6032015
:104CDC0070470020704710B510210446FFF7E9F922
:104CEC00204610BD08B5FFF7F6FF08BD30B5002211
:104CFC004FF69C74026084808D888C800C68858053
:104D0C0004600A6030BD10B504460068FFF72AFF46
:104D1C00204610BD38B5C468F4B12378022B03D1FA
:104D2C0004F10C00FFF7EFFF656835B12846FFF77B
:104D3C0086FF10212846FFF7BCF9A56835B1284637
:104D4C00FFF77DFF10212846FFF7B3F92046142109
:104D5C00BDE83840FFF7ADB938BD0B6803604B6850
:104D6C00436013B15A6801325A60704737B5044634
:104D7C0068460D46FFF7F1FF009B019A23606260C5
:104D8C00002301A801930093FFF72FFF35B1281DD5
:104D9C00FFF72BFF08212846FFF78BF9204603B0BD
:104DAC0030BD826810B50AB902F0DAFCBDE81040DB
:104DBC00C368184708B5006800F11001FFF7F1FF50
:104DCC0008BD826810B50AB902F0CAFCBDE81040F3
:104DDC00C368184708B5006800F11001FFF7F1FF30
:104DEC0008BD000038B500230446036010200D46B2
:104DFC00FFF75BF928B10123C0E90133024B0360D3
:104E0C00C5602060204638BD047E0B0038B50023F9
:104E1C0083608B6804460D462BB102229847EB68E1
:104E2C00E360AB68A360204638BD0000F0B589B0E4
:104E3C0004686846FFF75AFF4FF00203D4E84F2F7F
:104E4C00002A03D1C4E8413F0029F7D125D104F150
:104E5C000C0569462846FFF749FFBFF35B8F01231A
:104E6C006370002004F10803BFF35B8F53E8006FFD
:104E7C0043E80002002AF9D1BFF35B8F6EB1FFF754
:104E8C00BDFD78B129463046FFF78BFF3046FFF762
:104E9C00D6FE10213046FFF70CF96846FFF733FFBA
:104EAC0009B0F0BD314602A8FFF7B0FFE068B4F9D5
:104EBC00105008B102F0FAFD06901020ADF81C500D
:104ECC00FFF7F3F80546E8B1002787601820FFF7D5
:104EDC00ECF8044688B10146876002A8FFF7DEFEB5
:104EEC00049BA268A360059B049206A9E268E36098
:104EFC0004F110000592FFF7F9FE084BEB60084B2C
:104F0C002C60AB6006A8FFF7FEFE02A8FFF797FE29
:104F1C00002229460348FFF779FDB7E7C14D0B0086
:104F2C0045500B00234C0B002DE9F04F8BB0054680
:104F3C009DF850A00F4690469946FFF783FD07AEAB
:104F4C00834638BB4FF62E73059005A93046ADF855
:104F5C001830FFF7CBFE1420FFF7A7F8044648B132
:104F6C00022303700123C0E901BB437031460C30AE
:104F7C00FFF7BCFE2846214640F8044BFFF732FFF2
:104F8C003046FFF7C0FE05A8FFF7BDFE28460BB064
:104F9C00BDE8F08F0C2300241420CDE908440793BE
:104FAC00FFF783F8014618B1C0E90144047044705E
:104FBC0004A80391FFF716FF1E4B08930820FFF778
:104FCC0074F8044610B103A9FFF7C7FE00965FFA08
:104FDC008AF34A46414638460994FFF73BFDB8B977
:104FEC00039B5B7803F0FF0293B94FF69C7305A902
:104FFC0003A80592ADF81830FFF718FF05A8FFF7C6
:10500C0082FE05A80999FFF7B1FE06A8FFF7EDFD92
:10501C0003A905A8FFF7A1FE059B069A2B606A6001
:10502C00002306A806930593FFF7DFFD04A8FFF7FE
:10503C00DCFDABE709510B00012AF8B5054603D19D
:10504C000B6803600020F8BD022A10D0032AF9D1A6
:10505C000468002CF6D004F11000FFF754FE204633
:10506C00FFF7EDFD18212046FFF723F8EAE718209B
:10507C000E68FFF71AF8044650B13146FFF7C6FE2A
:10508C003069B6F9147008B102F010FD2061A782E6
:10509C002C60D7E738B5002383608B6804460D4637
:1050AC002BB102229847EB68E360AB68A360204603
:1050BC0038BD012A70B5044603D10B68036000208B
:1050CC0070BD022A0CD0032AF9D10468002CF6D04A
:1050DC002046FFF7B4FD14212046FEF7EAFFEEE769
:1050EC0014200E68FEF7E1FF054620B13146FFF7AC
:1050FC00D1FF337C2B742560E1E70000F0B589B05B
:10510C0004460D4601A81146FFF730FEA4B124B2A7
:10511C001DB1284602F0CAFC054601A803A9039557
:10512C00ADF81040FFF782FE03A8FFF7ECFD02A8D4
:10513C00FFF75BFD09B0F0BD019D0123D5E84F2FB2
:10514C00002A03D1C5E8413F0029F7D1EFD12B73D9
:10515C00BFF35B8F6B702B1DBFF35B8F53E8006F3E
:10516C0043E80042002AF9D1BFF35B8F002EDED05A
:10517C002046FFF743FC074660B105F10C013046B1
:10518C00FFF71FFE3046FFF75AFD10213046FEF7A1
:10519C0090FFCCE7314603A8FFF77CFF2B7B8DF803
:1051AC001C301020FEF781FF0546D0B1876014201B
:1051BC00FEF77BFF044678B18760014603A8FFF732
:1051CC006DFD059BA268A360069B0592E268E360F7
:1051DC009DF81C3006922374064BEB60064B2C603A
:1051EC00AB6003A8FFF72BFD002229460348FFF70D
:1051FC000DFCC7E7E14D0B00BF500B00234C0B001F
:10520C00002240681146FFF76DBC00224068114631
:10521C00FFF778BC40680022FFF76CBC40680022A6
:10522C0081F00101FFF756BC002340681A4619466D
:10523C00FFF748BC002340681A461946FFF73ABCF2
:10524C00002240681146FFF72DBC00224068114631
:10525C00FFF718BC406800220221FFF71BBC00239B
:10526C0040681A46FFF706BC024B03225A60024AFA
:10527C001A60704794E60320207E0B007047F8B547
:10528C00064615460C468F18BC4206D0336814F8F7
:10529C00011B9B6830469847F6E72846F8BD007C12
:1052AC000022FFF743BA007C0021FFF747BA007CCD
:1052BC000021FFF74BBA007C0021FFF74FBA007CAE
:1052CC000021FFF753BA10B514210446FEF7F1FE86
:1052DC00204610BD38B5044615464FF47A730022AB
:1052EC00C4E90123094B2174084623602946FFF7C2
:1052FC004DFABF3008D16B69DB0705D56868FFF73D
:10530C0031FCE868FFF72EFC204638BD647E0B00AC
:10531C00704710B518210446FEF7CBFE204610BD91
:10532C00F0B5037D062B8DB00E4600F104074FF04F
:10533C00000412D000F1080515F8011D0A223046B0
:10534C0001F051FBAF42044419D0002CF4D02E21B3
:10535C00304601F02FFB0444EEE72F236A46394612
:10536C000A208DF80040FFF721FA6846FEF75AFE36
:10537C0033680246DB686946304698470446204647
:10538C000DB0F0BD10B5054B0446112240F8043B9E
:10539C00002102F035FB204610BD00BF907E0B00B3
:1053AC000346074A10B543F8042B01F1100251F8DB
:1053BC00044B43F8044B9142F9D10A781A7010BD92
:1053CC00907E0B00037D042B04D14068003818BF7D
:1053DC0001207047062B07D143683BB983682BB972
:1053EC00C3681BB90069F1E70020704701207047C2
:1053FC0010B59DF8084044EA032343EA024242EA0E
:10540C00016104234160037510BD000007B5064B14
:10541C000360CB7800938B784A780978FFF7E8FF24
:10542C0003B05DF804FB00BF907E0B0000F110038D
:10543C00012213F8101C0129184608D153F8041C3A
:10544C0002EB4102013A03F11003F2D17047022939
:10545C0004BF53F8041C5218F4E7704710B514211C
:10546C000446FEF726FE204610BD38B51546D0E999
:10547C0003239342044607D2D21A8068AA4228BF5B
:10548C002A46184402F094FA22692A44226138BD53
:10549C000EB417B505AB044653F8042BE168019321
:1054AC00036980688B4238BFC91A184428BF002191
:1054BC00019BFFF767FB23691844206103B0BDE82B
:1054CC00104003B070470EB4F0B588B000AF07F1D0
:1054DC003405102155F8042B7A6004462B467818B5
:1054EC00FD60FFF74FFB0F287A681AD900F108030B
:1054FC0023F007036E46ADEB030D411C2B466846AB
:10550C00FD60FFF73FFB021E04DD236869469B68C4
:10551C0020469847B5462037BD46BDE8F04003B05D
:10552C0070470028F7D0236802469B6807F11001EA
:10553C0020469847EFE738B50B6803604D68436821
:10554C009D42044608D015B16B6801336B606068EE
:10555C0008B1FFF77DFB656038BD07B503688DF8B2
:10556C0007109B6801220DF10701984703B05DF805
:10557C0004FB0B461146002210B5C0E9002204467C
:10558C0083600BB9204610BDFFF7D5FFFAE783689F
:10559C00EBB11A78032A1AD8DFE802F00417021BC1
:1055AC000520704702685B685268D05C2D2812D0C9
:1055BC00A0F13003092B0ED974280ED066280CD01C
:1055CC00A0F16E03584258417047062070470020E6
:1055DC00704704207047032070470220704710B5B5
:1055EC000446FFF7D4FF02280ED0C31EDBB2012BFA
:1055FC0014D82268A36850685B68BDE810400A2282
:10560C000021184402F01ABB2268A36852685B6838
:10561C00D05CA0F174035842584110BD0020FCE747
:10562C0038B50023C0E9003304460E48C4E9020330
:10563C00A9B10B78032B06D08BB9136858684B684B
:10564C00C35C6E2B07D013684D6858688B68284470
:10565C005B1BA060E36011462046FFF76CFF204601
:10566C0038BD00BF5C7D0B0038B500250B46C0E98A
:10567C000055C0E90255C0E90455044611464BB12A
:10568C001A78012A06D103F11002DB6882604361AB
:10569C00FFF751FF204638BD10B54369044663B18E
:1056AC008068E060013B1030A0602061636113B141
:1056BC00FFF7BCFEA060012000E0184610BD10B53D
:1056CC007D210446FFF749FF01232371204610BDBD
:1056DC0008B50379012B02D0022B04D008BD2C2174
:1056EC00FFF73BFFFAE73A21FAE710B50446FFF75C
:1056FC00EFFF20467B21FFF730FF0023237120466C
:10570C0010BD000013B504460191FFF7E1FF2368BB
:10571C00019ADB68034920469847012320462371F0
:10572C0002B010BD0C800B0013B504460191FFF7BD
:10573C00CFFF2368019ADB68034920469847012371
:10574C002046237102B010BD9C7E0B002DE9F04762
:10575C000D46222190460446FFF7FFFEDFF8A49089
:10576C00A8442F464745BA463DD017F8016B222E68
:10577C0006D05C2E04D0304602F012F90028F1D18C
:10578C002368AAEB05029B682946204698475C21B2
:10579C002046FFF7E2FE0D2E0AD8072E1CD9A6F1E3
:1057AC000803052B18D8DFE803F00D0F111713159C
:1057BC00222E01D05C2E0FD131462046FFF7CDFEB4
:1057CC003D46CFE76221F8E77421F6E76E21F4E756
:1057DC006621F2E77221F0E723683246DB6849461E
:1057EC0020469847ECE7BD4205D023687A1B9B689E
:1057FC0029462046984722212046FFF7AEFEBDE8F9
:10580C00F08700BF9F7E0B0013B50446CDE9002145
:10581C00FFF75EFF2046DDE90021FFF797FF02232B
:10582C002046237102B010BD13B50446CDE900210A
:10583C00FFF74EFF2046DDE90021FFF787FF01232C
:10584C002046237102B010BD8842F8B504460D46BF
:10585C00164614D9904213D2A2F11006751AA1F172
:10586C0010072C44B74218D01CB13146204601F029
:10587C0090F9304601F010F9103E103CF2E70CD0D4
:10588C00B5420AD01CB12946204601F082F92846BF
:10589C0001F002F910351034F2E7F8BD70B50E1EA8
:1058AC00054611DD3001FFF755F9044658B1D5E92D
:1058BC00001201EB0212FFF7C7FF2868FFF752F93D
:1058CC002C60AE60012070BD0024F6E710B50446D4
:1058DC0080680368DB689847E3681844E06010BD93
:1058EC007047084611B10B685B68184770477047E2
:1058FC0070477047704738B504460D4600682E2136
:10590C0002F0C1F82368C31A2B6023B1037803B1EA
:10591C00013023682060184638BD10B510210446AC
:10592C00FEF7C7FB204610BD10B504210446FEF758
:10593C00C0FB204610BD10B504210446FEF7B9FB90
:10594C00204610BDFEF7BABE08B5FEF761FBB0FAF3
:10595C0080F0400908BD704710B50C4601F028FDD9
:10596C00844210D001F0D4FE844205D101F0D0FE67
:10597C00BDE8104001F0B7BC2CB1236820465B6831
:10598C00BDE81040184710BD0B6803604B684360BE
:10599C0013B15A6801325A60704713B50446084671
:1059AC000191FEF73FFB01990246204602B0BDE88B
:1059BC001040FFF739BF13B5044608460191FEF7B6
:1059CC0031FB23680199DB680246204602B0BDE832
:1059DC001040184707B503688DF80710DB680122E3
:1059EC000DF10701984703B05DF804FB2DE9F74F63
:1059FC00D0E900844FF0140A00930AFB04F4184B0E
:105A0C00A41017465C434546002C21DD66100AFBAA
:105A1C0006F005EB00093A46B9F804B02858019194
:105A2C005F4528BF5A4602F05EF8002801994FF0F6
:105A3C0001030BD15F4503D1009A13703446E3E7A1
:105A4C00FCD9A61B09F11405013EF7E7F9DBF5E7D4
:105A5C00A5EB08050248AD10684303B0BDE8F08F14
:105A6C00CDCCCCCC7FB50369057E019103B3F9B1E4
:105A7C00002600F10C04039603A901A8FFF73BFFD5
:105A8C000146A8B10DF10B03039A8DF80B6020466B
:105A9C00FFF7ACFF9DF80B3053B12368142404FBC3
:105AAC000034083434F9023C002BA8BFDDB2E3E724
:105ABC00284604B070BD0EB4F0B58CB000AF07F141
:105ACC004405044655F8042B7A602B46202107F137
:105ADC001000FD60FFF756F81F287A681AD900F1FC
:105AEC00080323F007036E46ADEB030D411C2B4658
:105AFC006846FD60FFF746F8021E04DD2368694620
:105B0C00DB6820469847B5463037BD46BDE8F040C7
:105B1C0003B070470028F7D023680246DB6807F112
:105B2C00100120469847EFE710B5094C2378BFF3D6
:105B3C005B8FDB0709D42046FEF7CAFA28B1204652
:105B4C00FEF7CBFA034801F021FF034810BD00BF5C
:105B5C00A0E60320FB580B0064DD032010B5094CB4
:105B6C002378BFF35B8FDB0709D42046FEF7B0FA2E
:105B7C0028B12046FEF7B1FA034801F007FF0348AD
:105B8C0010BD00BFA4E6032063590B0068DD0320A1
:105B9C0038B500250446C0E90055C0E904558560B8
:105BAC00856140F8245FFEF779FDFFF7BDFFE061EA
:105BBC00FFF7D4FF25732062204638BD10B50A4C80
:105BCC002378BFF35B8FDB070CD42046FEF780FAFB
:105BDC0040B10648FFF7DCFF2046FEF77EFA04488A
:105BEC0001F0D4FE014810BD9CE60320ACE6032076
:105BFC0041610B00024A034903480023FEF7E6BE4D
:105C0C00255F0B00B15E0B00315E0B0000231A46C2
:105C1C0019461846FEF7DABE37B58D680446684655
:105C2C00FFF7B2FE6A4629462046FFF71DFD01A884
:105C3C00FEF7DBFF204603B030BD37B5CD68044618
:105C4C006846FFF7A1FE6A4629462046FFF7E8FCA6
:105C5C0001A8FEF7CAFF204603B030BD37B50D6969
:105C6C0004466846FFF790FE6A4629462046FFF731
:105C7C0080FC01A8FEF7B9FF204603B030BD000040
:105C8C0070B58AB00D46014604A8FFF7C5FF144E47
:105C9C0004A8FFF701FDE8B104A96846FFF7CDFFA2
:105CAC0002983146FFF750FE044610B12C1E18BF67
:105CBC00012401A8FEF799FF002CE9D004A968463D
:105CCC00FFF7CCFF6846FFF78AFC286001A8FEF7B7
:105CDC008CFFDDE705A8FEF788FF0AB070BD00BF9A
:105CEC00C07E0B0037B50C46204613491546FEF70F
:105CFC008FF950B901F05CFB4FF4165101F048FBE1
:105D0C0003B0BDE8304001F053BB0C492046FEF710
:105D1C007FF978B94FF4165301A928460193FFF780
:105D2C00AFFF01F0F5FC019901F0DAFA01F0F0FC9B
:105D3C0003B030BD0020FBE7C57E0B00CC7E0B0012
:105D4C0070B5D0E900531426044606FB0356AE4248
:105D5C0005D005F10800FFF7F3FF1435F7E72068CD
:105D6C00FEF700FF204670BD10B504460C30FFF75F
:105D7C00E7FF2046FEF780FF204610BD10B5044B10
:105D8C00044640F8043BFFF7EFFF204610BD00BF70
:105D9C00A07D0B0010B50446FFF7F0FF2046242130
:105DAC00FEF787F9204610BD10B5034B036004467F
:105DBC00FFF7E4FF204610BD687F0B0010B50446CA
:105DCC00FFF7F2FF20462421FEF773F9204610BDA1
:105DDC000A6802604A6842600022C0E9022210B5DB
:105DEC0002618C688460CC68C4600C698A60CA608B
:105DFC0004610A6110BD0022C0E9002210B5826066
:105E0C000C6804604C6844608C680A604A6084606A
:105E1C008A6010BD10B5036804461868FEF756FC7E
:105E2C00204610BD2DE9F04F87B0804603931C4BE4
:105E3C005B68C3F30803894616466BB9FFF7BEFED1
:105E4C00044600F12403406A0593FFF77BFD237B96
:105E5C002BB105A8FFF7DEFF07B0BDE8F08F0123DB
:105E6C002373D4E900535FFA89F905EB830AAA4539
:105E7C0012D055F8047B3146381DFFF7F3FD8145F0
:105E8C00F5D33B68039A0092D3F808B04A463346E0
:105E9C0041463846D847EAE700232373D9E700BFC9
:105EAC0000ED00E02DE9F74F9B461A4B5B68C3F3FE
:105EBC0008038046894616466BB9FFF77FFE0446F9
:105ECC0000F12403406A0193FFF73CFD237B2BB1C7
:105EDC0001A8FFF79FFF03B0BDE8F08F01232373E8
:105EEC00D4E90053F6B205EB830A55450ED055F8AC
:105EFC00047B5946381DFFF7B5FD8642F5D33B6848
:105F0C004A46DB68414638469847EEE70023237340
:105F1C00DEE700BF00ED00E02DE9F341164B5B68B6
:105F2C00C3F3080305460F461BBBFFF747FE00F102
:105F3C0024030446406A0193FFF704FDD4E900638F
:105F4C00462406EB8308B04509D101A8FFF762FF90
:105F5C00A542B4BF0020012002B0BDE8F08156F884
:105F6C00040B39460430FFF77DFD8442A8BF04467C
:105F7C00E9E70020F0E700BF00ED00E0F8B5D0E95C
:105F8C0001539D4204460E460DDB6F1C002F00682A
:105F9C0004DDB900FEF7EEFD18B9F8BDFEF7E2FD21
:105FAC0000202060A7602768626807EB85019200DB
:105FBC00A2EB8502081D01F009FD47F82560636816
:105FCC00013363600120E8E737B500F12403044690
:105FDC00406A01930D46FFF7B5FCD4E9003203EBA0
:105FEC008202934219460BD00968A94203F10403BB
:105FFC00F7D101A8FFF70EFF0025284603B030BDEE
:10600C0029462046FFF7BAFF05460028F1D0636801
:10601C00012B01D1FFF7EEFD01A8FFF7FBFEECE72A
:10602C0070B50446D0E900020B4600EB82028242B6
:10603C000FD001461D6851F8046BAE4207D1521ABD
:10604C0001F0C4FC6368013B6360012070BD08462D
:10605C00EDE70020FAE71FB500F124030446406A7F
:10606C0001910393FFF76EFC01A92046FFF7D8FFBF
:10607C0018B163680BB9FFF7C9FD03A8FFF7CAFE97
:10608C0004B010BD70B5D0E904561823044603FBC8
:10609C000656AE4215D005F110012046FFF7C0FFA1
:1060AC0063680BB9FFF7B2FDE06929690368DB6827
:1060BC009847696919B1206A0368DB6898471835F5
:1060CC00E7E7D4E90453182606FB0356AE4204D086
:1060DC00284600F0E1FC1835F8E70023636170BD39
:1060EC0073B50446FFF792FD04F12403606A019333
:1060FC00FFF728FC2046FFF7C5FF01A8FFF78AFE33
:10610C00606A08B1FEF7D2FAD4E90453182606FBEC
:10611C000356AE4204D0284600F0BEFC1835F8E712
:10612C002069FEF71FFD2068FEF71CFD204602B01B
:10613C0070BD00000148FFF7D3BF00BFACE60320E1
:10614C008842F8B504460D46164615D9904214D22D
:10615C00A2F11406751AA1F114072C44B7421AD0F7
:10616C001CB131462046FFF733FE06F10800FFF75D
:10617C00E7FD143E143CF1E70DD0B5420BD01CB139
:10618C0029462046FFF724FE05F10800FFF7D8FD4D
:10619C0014351434F1E7F8BD2DE9F04F904695B065
:1061AC0000230391D8F804100A9346229942C0E9BF
:1061BC000033C0E90233C0E90433CDE908330446A7
:1061CC00027623DCD8E90057142303FB0757AF42B0
:1061DC003BD029460BA800F0DCFC0BA90FA8099EAC
:1061EC0000F0D7FCDDE9091399421BDA089B099AE8
:1061FC0003EB061603EB0212314606F11000FFF713
:10620C0023FBEEB9099B0133099311E008A8FFF7B2
:10621C0045FB0028D6D108A8FEF72EFD204615B068
:10622C00BDE8F08F013108A8FFF738FB0028DDD15D
:10623C000FA800F031FC0BA800F02EFC1435C6E7BB
:10624C000FA9304600F0A5FCDCE70026CDE90B6673
:10625C000D964FF01409DDE908239E427CDA3301D8
:10626C00D35806930BB90136F5E70023079309FBC6
:10627C0006F302930BAD07A906A8FFF73CFB824679
:10628C000028F0D04FF000038DF817300146079A24
:10629C000DF117032846FFF7A9FB9DF81770019025
:1062AC00002F4AD1BDF81C30ADF84030CDE9117744
:1062BC004FF6FF73CDF83CA0ADF842301397D5E9FB
:1062CC000132934217DB03F1010ABAF1000F30DD02
:1062DC0009FB0AF0FEF73EFC834660B3D5E90012D9
:1062EC0009FB0212FFF72CFF2868FEF73BFCC5F8F0
:1062FC0000B0C5F808A02B68019A09FB023A6A683D
:10630C00514609FB02320AF11400FFF719FFBAF1EA
:10631C00000F03D00FA95046FFF75AFD6B680133ED
:10632C006B6011A8FFF70CFD3FB10BA8FFF708FD40
:10633C0071E7BB46D8E70127F3E7019B2D6809FB02
:10634C000355069B1B782BB9D8F80030029A1344DE
:10635C001B7CEB8008358EE72168226062686360E5
:10636C00A36809920A9A0A93E368A2600B9A0B93AA
:10637C002369E2600C9A0C93636922610D9A0D9368
:10638C00039B089162612376CFE70000F0B50446C9
:10639C0087B00D462646194668461746FEF7D7F8CD
:1063AC000B4B46F8043B694603A8FEF7D0F803AA4A
:1063BC0039463046FFF7F0FE03A8FEF787F868462B
:1063CC00FEF784F8034B23602046256207B0F0BD2E
:1063DC00A07D0B00507F0B00F0B50F4685B01D491A
:1063EC000A9C384616461D46FDF712FEC0B9A4B1EC
:1063FC00294601A8FFF7FFFC1749242001F0ACF94E
:10640C00054630B101AB32462146FFF7BFFF134BB7
:10641C002B6001A8FEF75AF82C46204605B0F0BDBB
:10642C000F493846FDF7F4FD90B9002CF5D02946FC
:10643C0001A8FFF7E0FC0849242001F08DF905467E
:10644C000028E6D001AB32462146FFF79FFFE0E77C
:10645C000024E2E7D47E0B0044810B00687F0B0024
:10646C00D87E0B00014B024A1A607047A8E6032045
:10647C00E97E0B002DE9F047089DD0F820900446EA
:10648C000E461746984600F093FF81454CD02B7969
:10649C00190704D56A6954492046FFF70CFBB8F17B
:1064AC00000F0DD05B212046FFF794FA41462046A1
:1064BC00FFF781FA23684D49DB6802222046984792
:1064CC002B79DA0723D5D5F808802F21404601F027
:1064DC001EFB08B100F1010841462046FFF76BFA9C
:1064EC002B799B0708D53A212046FFF773FAEA6807
:1064FC003F492046FFF7DFFA2A79236812F0040F90
:10650C00DB6814BF3B493C490222204698472B7953
:10651C0058071DD529690B461A4613F8010B60B1B3
:10652C00202808D11946F7E7344800F082F90028F2
:10653C00ADD0BDE8F0872828EED12368521ADB686D
:10654C002046984723682E49DB680422204698474A
:10655C0000213846FEF732FA01462046FFF72BFAA7
:10656C0023682549DB680222204698471EB1314634
:10657C002046FFF720FA2B7913F0300F2CD023682C
:10658C002049DB680222204698472B79D9060AD588
:10659C0023681D49DB68072220469847AA691B49D6
:1065AC002046FFF788FA2B799A0611D5DB0605D51C
:1065BC0023681049DB680222204698472368144957
:1065CC00DB6820460A229847E9692046FFF7F3F971
:1065DC005D212046FFF7FEF923680E49DB68204653
:1065EC000222BDE8F0471847ED7E0B00F47E0B004D
:1065FC000C800B00F77E0B00FC7E0B00D4E6032016
:10660C00FA7E0B00FF7E0B00027F0B000A7F0B0053
:10661C000D7F0B005A7D0B002DE9F0410446076AF3
:10662C000D46164600F0C4FE874207D0206A036868
:10663C0032462946DB68BDE8F0411847034800F0B4
:10664C00F8F80028F2D0BDE8F08100BFD4E60320B2
:10665C002DE9F04385B0D0F820900C9C05460F46F0
:10666C0090461E4600F0A4FE814505D1494800F035
:10667C00E0F8002840F08A802B6A474A00924FF0DD
:10668C0000096846CDE902398DF80490FFF72DF822
:10669C0049464046FEF792F9404980460122684639
:1066AC00FFF7B2F84146FFF778F93FB13C490122B8
:1066BC006846FFF7A9F83946FFF76FF93EB139493B
:1066CC0001226846FFF7A0F83146FFF766F92379F7
:1066DC00DF070ED5A6682F21304601F018FA00B15D
:1066EC00461C314901226846FFF78EF83146FFF708
:1066FC0054F923799E0707D52C4902226846FFF7E7
:10670C0083F8E168FEF7FEFF2379580714D5266954
:10671C0033461F4613F8012B2AB1202A01D11E46FD
:10672C00F7E7282AF5D1224902226846FFF76CF8D0
:10673C00BA1B3146FFF778F82379190707D51D499D
:10674C0001226846FFF760F86169FEF7EDFF2379D7
:10675C00DA0607D5184904226846FFF755F8A169EF
:10676C00FEF7D0FF23799B0607D51449062268460D
:10677C00FFF74AF8E169FFF710F96846FEF79FFF4B
:10678C00286A0F4903680222DB68984705B0BDE808
:10679C00F08300BFD4E60320387F0B00CA7E0B00C9
:1067AC00187F0B00A7820B001A7F0B001C7F0B00BD
:1067BC001F7F0B00EB7D0B00227F0B00277F0B0054
:1067CC005A7D0B00002340681A46FEF753B9406807
:1067DC0000220221FEF75EB9002240681146FEF746
:1067EC0051B9002240681146FEF75CB9002340689D
:1067FC001A461946FEF75EB9002340681A46194638
:10680C00FEF760B940680021FEF784B940680021AA
:10681C00FEF788B94068002281F00101FEF75AB9F1
:10682C0040680022FEF766B9002240681146FEF768
:10683C0069B9002240681146FEF754B9406800213E
:10684C00FEF780B92DE9F04395B014460D46074686
:10685C00FEF798FD00211C220DA8009101F0D0F844
:10686C0040230C9320466B460CAA0021FDF7BEFF7B
:10687C00044600284BD1024601216868FEF712F944
:10688C000221804622466868FEF70CF9009E81467C
:10689C002146002E3BD0002939D17368022B03D03E
:1068AC000A2B11D0F669F4E7B8F1000FFAD0716930
:1068BC0006A8043107ADFEF7A9FD0FCD3C1D0FC492
:1068CC002B6823704146EDE7B9F1000FEAD07469EB
:1068DC00102201A801F094F806238DF8143001ADB4
:1068EC0004F108031834186859682A4603C208339F
:1068FC00A3421546F7D101A906A807ADFEF750FD36
:10690C000FCD3C1D0FC42B6823704946CAE7009875
:10691C00FDF764FF384615B0BDE8F0830338022854
:10692C009ABF024B53F8200001487047A87F0B0018
:10693C00D4E6032008B500224068FEF7FBF8BDE85A
:10694C000840FFF7EBBF0000024B034A1A6000221D
:10695C005A607047D4E60320BC7F0B00F8B506469E
:10696C000D468F180024BD420CD0336815F8011B5E
:10697C009B6830469847031E01DB1C44F3E7002C50
:10698C0008BF1C462046F8BD13B50446084659B14D
:10699C000191FDF747FB23680199DB68024620460D
:1069AC0002B0BDE81040184702B010BD08B5FFF7A3
:1069BC00EBFF08BD03689B68184738B50D210546E9
:1069CC00FFF7F8FF0A2104462846FFF7F3FF20449F
:1069DC0038BD38B50546FFF7D7FF04462846FFF704
:1069EC00ECFF204438BD30B58BB00023012A8DF864
:1069FC00243098BF0A2209AC0D46B1FBF2F101FB21
:106A0C00125303F0FF03092B94BF30333733DBB23F
:106A1C00AA4204F8013DEFD92146FFF7B5FF0BB0B0
:106A2C0030BD0000014B00229A607047DCE6032069
:106A3C0010B5044608462170FDF710FF0023636073
:106A4C00204610BD10B50446FDF758FEE0602368E3
:106A5C0020465B699847002808DAFDF74FFEE3688B
:106A6C00C01AA3689842F2D34FF0FF3010BD2DE945
:106A7C00F04107460C468E180D46B542A5EB0408AE
:106A8C0007D03846FFF7DEFF031E02DB05F8013B9B
:106A9C00F3E74046BDE8F08110B504460068FEF708
:106AAC0061F8204610BD10B50446006808B1FEF729
:106ABC0059F80023C4E90133236010BD38B50446EE
:106ACC000D4600680131FEF755F810B1C4E9000518
:106ADC00012038BD10B50368044623B143688B42CE
:106AEC0001D3012010BD2046FFF7E8FF0028F9D0A4
:106AFC00A368002BF5D122681370F2E737B50D4669
:106B0C00114601920446FFF7E5FF019A28B9204689
:106B1C00FFF7C9FF204603B030BDA26029462068AC
:106B2C0000F046FF2268A3680021D154F2E700234D
:106B3C0013B5C0E9003304468360037341B10846C2
:106B4C000191FDF76FFA019902462046FFF7D6FF37
:106B5C00204602B010BD38B5054600680C4670B131
:106B6C006A688B689A4208D3096831B100F095FFC6
:106B7C00A368AB600023A36038BDFDF7F3FF236867
:106B8C002B6063686B60A368AB600023C4E90033BF
:106B9C00F1E710B50023C0E90033044683600373AA
:106BAC00FFF7D9FF204610BD884210B5044605D02A
:106BBC000B682BB18A681946FFF7A0FF204610BD61
:106BCC00FFF771FFFAE710B500230446C0E9003364
:106BDC0083600373FFF7E8FF204610BD13B504462E
:106BEC0059B108460191FDF71DFA0199024620465C
:106BFC00FFF784FF204602B010BDFFF754FFF9E702
:106C0C0008B582683AB921B10878B0FA80F0400929
:106C1C0000E0012008BD006809B90078F5E7FDF730
:106C2C00F7F9F2E7054B02221A60054B054A9A6008
:106C3C000020C3E90000FDF7D1BE00BFF8E6032039
:106C4C00ECE603200000FFFF13B503688DF8071076
:106C5C001C6C01224FF0FF330DF10701A04702B06D
:106C6C0010BD10B403681C6C4FF0FF33A4465DF8E4
:106C7C00044B604713B5134602688DF80710146C6B
:106C8C000DF107010122A04702B010BD10B54369F8
:106C9C00B3F88620B3F884309A42044608D063696E
:106CAC00B3F88420511CA3F884101344187910BD38
:106CBC0003681B6998470028F1D14FF0FF30F6E7C5
:106CCC00704743691868C043C00F70477047000095
:106CDC00064B994210B500F10C0405D0084600F0A3
:106CEC0043FD002808BF0024204610BDF47D0B0096
:106CFC0010B5AC210446FDF7DCF9204610BDAC21E3
:106D0C00FDF7D7B92DE9F0414FF0000886B01C46CD
:106D1C00C0F8048005460E4617464146102202A8CC
:106D2C0000F06EFE631C09D04FF47A73B4FBF3F2DF
:106D3C0003FB1244CDE902285C43049468691023D8
:106D4C000093006802AB41F2050240F6FF71FDF7BB
:106D5C0055FD002807DAFDF72DFF03686B60002056
:106D6C0006B0BDE8F0816869002300683A463146F8
:106D7C00FDF764FD031EEEDB1846F1E738B58469B8
:106D8C000A4B036005467CB16368013B63605BB9E9
:106D9C00236820469B689847A368013BA3601BB9F6
:106DAC0023682046DB689847284638BD34800B00A2
:106DBC0010B50446FFF7E2FF20461C21FDF779F9D8
:106DCC00204610BD30B587B0044601AD6846FEF7CD
:106DDC001DFB0FCD04340FC42B68237007B030BDDE
:106DEC0070B54D69054B04468C3544F8043B06469A
:106DFC000FCD0FC42B682370304670BD907E0B00F6
:106E0C002DE9F0439846036893B00D4600241B6BA4
:106E1C0006461746984728466B462246214600945C
:106E2C00FDF7E4FC0546002863D1009B002B4BD0FA
:106E3C005B69002B48D006A8FEF7A4FA009B5C699E
:106E4C006378022B04D1211D06A8FFF7BBFF26E0B7
:106E5C000A2B24D11122294601A800F0D1FDA368E8
:106E6C00002B38D004F108030DF1040C1834186809
:106E7C005968624603C20833A3429446F7D10623ED
:106E8C0001A90CA88DF81430FEF78AFA0DF1340C18
:106E9C00BCE80F0007AC0FC4DCF80030237006A868
:106EAC00FEF790FA80B1336807ADD3F82490124BFB
:106EBC000C930FCD0DAC0FC42B6823703A46434690
:106ECC000CA93046C84705460098FDF787FC2846B4
:106EDC0013B0BDE8F083E368002BC3D14FF6FF700D
:106EEC00D4F81090FDF76AFC8145BBD104F1140174
:106EFC00AAE72546E8E700BF907E0B0038B543694A
:106F0C001A68002A054610DAB3F88620B3F88430E4
:106F1C009A420AD103681B699847044628B92B6822
:106F2C0028461B6B9847204638BD0120FCE710B55E
:106F3C004369B3F88620B3F884309A42044605D0EE
:106F4C006369B3F884201344187910BD03681B6976
:106F5C0098470028F4D14FF0FF30F6E7F8B54369B5
:106F6C001746B3F88620B3F884309A4205460E468D
:106F7C0016D06969B1F88430B1F88640E41ABC4285
:106F8C0028BF3C46043322461944304600F010FD1D
:106F9C006A69B2F884302344A2F884302046F8BDE4
:106FAC0003681B6998470028E3D14FF0FF34F5E7DD
:106FBC0042690023A2F884304269A2F886307047F7
:106FCC00F0B51F4603680C461B6B8BB00546164686
:106FDC009847237D042B0CBF02200A200622012196
:106FEC00FDF734FC6B6918606B691B68002B07DAC2
:106FFC002B6828461B6B0024984720460BB0F0BD2D
:10700C002846FFF7D5FFB7B1002303A9F8B20393C5
:10701C00ADF81030FDF7C2FB0028E9D168690623F2
:10702C000093006803AB41F20B0240F6FF71FDF7D1
:10703C00E5FB0028DCD11C22002103A800F0E0FCB9
:10704C00237D042B1DD14FF407733046ADF80C3063
:10705C00FDF7BCFBADF80E006068FDF7AFFB0490CC
:10706C006B691C22186803A9FDF7D8FB0028BFD157
:10707C0004340FCC6D698C350FC523682B7001243B
:10708C00BBE740F61C233046ADF80C30FDF79EFBF9
:10709C0005AEADF80E00231D04F1140718685968ED
:1070AC00324603C20833BB421646F7D1D8E700007C
:1070BC0030B54269B2F886308BB004462BB1B2F8C9
:1070CC0084209A4201D1FFF773FF61690868002898
:1070DC0018DBB1F886507F2D14D804310823C5F184
:1070EC0080022944FDF7A2FB002813DD6369B3F885
:1070FC0086200AB9A3F884206369B3F8862010446B
:10710C00A3F886006369B3F88600B3F88430C01A1C
:10711C000BB030BDFDF74EFD03680B2BF2D0FDF725
:10712C0049FD03680B2BEDD020230025CDE902355A
:10713C00FDF740FD03680193084B0949009302AA2F
:10714C002B463220FDF732FC63691868FDF75EFBB5
:10715C0063694FF0FF321A60D4E700BFFF7F0B006A
:10716C00F87F0B0010B5436904461868002801DB52
:10717C00FDF74CFB63694FF0FF321A606069112216
:10718C0000218C3000F03CFC2046BDE81040FFF79D
:10719C000FBF10B5002304460160C0F8843088305E
:1071AC00FEF7F0F8204610BD73B500234FF47A7249
:1071BC00C0E901320E4A0361026043610446AC200F
:1071CC000191FCF772FF051E05F10C0608D0012396
:1071DC00C5E90133074B01992B603046FFF7D9FF06
:1071EC002046C4E90565FFF7E3FE02B070BD00BFA1
:1071FC0034800B0018800B0010B54FF0FF310446A3
:10720C00FFF7D2FF204610BD10B5044600680028D9
:10721C0001DBFDF7FBFA204610BD0C30FFF7F4BF85
:10722C00024B1A68024B1A60704700BF6CDD0320DA
:10723C00FCE6032070474174704708B5007CFDF7ED
:10724C0055FB20EAE07008BD08B5007CFDF726FB75
:10725C0020EAE07008BD08B5007CFDF72FFB40EA82
:10726C00E07008BD08B5007CFDF720FB40EAE0703B
:10727C0008BD007CFDF72ABB37B5457C04462DB113
:10728C00207C03B0BDE83040FDF700BB007C0191D1
:10729C00FDF72CFB00280199F2DC284603B030BD29
:1072AC0010B514210446FCF704FF204610BD000065
:1072BC0010B54FF47A730446084611460022C4E90F
:1072CC000123044B2360012320746374FDF71EFB20
:1072DC00204610BDA0800B00007C0023FDF70EBBE8
:1072EC000022FFF7F9BF007CFDF7C8BA4174704764
:1072FC007047704708B50021007CFDF737FB40EA6A
:10730C00E07008BD08B50121007CFDF72FFB40EAB9
:10731C00E07008BD08B5007CFDF720FB20EAE070AA
:10732C0008BD08B5007CFDF711FB20EAE07008BD34
:10733C0013B50446007C0191FDF710FB0028019960
:10734C0001DC607C20B1207CFDF718FB20EAE070AA
:10735C0002B010BD007CFDF719BB10B5142104461A
:10736C00FCF7A7FE204610BD10B54FF47A73044607
:10737C0008460021C4E90113044B23600123207447
:10738C0063741146FDF7CAFA204610BDD4800B0079
:10739C00007C0022FDF7CABA007CFDF7CFBA10B50D
:1073AC0014220446002100F02BFB204610BD0000E7
:1073BC0010B50F4C88B003A8FFF7F1FF2178BFF38D
:1073CC005B8F11F001010FD120460191FCF780FE7B
:1073DC00019948B103AA0748FFF7C6FF2046FCF7FE
:1073EC007CFE054800F0D2FA024808B010BD00BF80
:1073FC0000E7032004E70320FD720B000022406825
:10740C001146FDF74FBB002240681146FDF76ABBE1
:10741C00002240681146FDF775BB40680022FDF75D
:10742C0069BB4068002281F00101FDF753BB0023CA
:10743C0040681A461946FDF745BB002340681A46BA
:10744C001946FDF737BB002240681146FDF71ABB01
:10745C00406800220221FDF71DBB002340681A463C
:10746C00FDF708BB024B04225A60024A1A607047AF
:10747C0018E7032008810B00014B1860704700BF10
:10748C0070DD032008B50B4B43B1FFF791FF036888
:10749C001B699847002801DDAFF30080064B43B110
:1074AC0000F036F903681B699847002801DDAFF33B
:1074BC00008008BD000000000000000008B5FFF7C8
:1074CC00E1FFFDF71BF9014B186008BD34E7032001
:1074DC000548064A064908B5121A00F069FA054B28
:1074EC00054A1A6008BD00BF00F4032004F4032011
:1074FC0084840B0000F403201E1C279A07B500237C
:10750C0000931A466FF07701FDF792FA03B05DF81D
:10751C0004FB000007B543880A2B08D0502B0BD175
:10752C00094B1B684BB103B05DF804EB1847FFF730
:10753C00E5FF03B05DF804FB002300931A466FF0DF
:10754C007701FDF775FAF4E724E7032010B512482C
:10755C000021FDF73FFB114B1A68114B9A42114B5E
:10756C000CBF012200221A7001D0FFF7B1FFFDF70A
:10757C00B5F8044600F04CFA0B4B13B12046AFF3B0
:10758C00008000210848FDF76DFABDE8104007485F
:10759C000021FDF743BA00BF85740B0000F40320F3
:1075AC001E1C279A20E703200000000021750B0009
:1075BC00232813B502D9002002B010BDA0F10B0393
:1075CC00022B1AD8174C2178BFF35B8F11F00101F5
:1075DC000BD120460191FCF77BFD019928B1124893
:1075EC00FFF726FA2046FCF778FD0F4B1878FDF7CD
:1075FC003DF90028DFD10120DEE7012809D800F091
:10760C0047F80021007CFDF7B9F880F00100C0B20A
:10761C00D2E709380128EED800F07AF8007CFDF7A3
:10762C005DF9F2E728E703202CE703200D2810B5BD
:10763C0004469CBF0E34A4B22046FFF7B9FF50B1EC
:10764C0003212046FDF762F8032804D12046BDE84B
:10765C001040FDF763B8002010BD704738B50A4BD9
:10766C0003600123044643610849202000F076F8AA
:10767C00202560600549A560284600F06FF8C4E934
:10768C000305204638BD00BF1800010044810B00E3
:10769C0030B50E4D2978BFF35B8F11F0010487B024
:1076AC0011D12846FCF714FD68B16846FFF7D6FFE8
:1076BC006A4621460648FDF70DFE2846FCF70DFDEF
:1076CC00044800F063F9024807B030BD38E70320E6
:1076DC003CE7032067760B007047000038B5044682
:1076EC0014252A46002100F08BF9258040250749F6
:1076FC0025812846258200F031F80449606028462F
:10770C0000F02CF8E060204638BD00BF44810B002F
:10771C0030B50E4D2978BFF35B8F11F0010487B0A3
:10772C0011D12846FCF7D4FC68B101A8FFF7D6FFAD
:10773C0001AA21460648FFF7BBFD2846FCF7CDFC05
:10774C00044800F023F9024807B030BD50E703208D
:10775C0054E70320E5760B00FCF7A7BCFCF7A7BCAD
:10776C0008B5FDF717FA0000014900F0F9B800BFA1
:10777C0060810B007FB500241023CDE9023403682F
:10778C0015469E6912686B46CDE90044B0479DF8DA
:10779C00043003F00603062B03BF009B2B60012073
:1077AC00204604B070BD0098904214BF0120062002
:1077BC007047000010B5034B0360044600F0CDF891
:1077CC00204610BDA0810B0010B50446FFF7F2FF58
:1077DC0020460821FCF76DFC204610BD2DE9F04138
:1077EC001F46DDE90834DDF8188098450646154635
:1077FC0007D1079900F0B4F818B165710020BDE805
:10780C00F0813946304600F0ABF80028F6D0012361
:10781C00C4F800802571A371F0E738B515461C46F5
:10782C0000F09EF820B10823E36006232560237145
:10783C0038BD73B505460C4601921E4600F090F813
:10784C0050B9032E08D82368019A5B692946204653
:10785C0002B0BDE87040184702B070BD10B5034BC4
:10786C0003600446FFF7A6FF204610BD00820B0004
:10787C0010B50446FFF7F2FF20460C21FCF719FC6B
:10788C00204610BDF7B5089F974205460E46144694
:10789C000AD0A86802680897156A31462246AC4699
:1078AC0003B0BDE8F04060471946019300F058F86A
:1078BC00019B0028EDD0062003B0F0BD2DE9F14F5F
:1078CC000D461946DDE90A4BDDE90CA68146174643
:1078DC00984600F045F890B1002D3460377109DB03
:1078EC0061198A450CBF06210121B171002001B03C
:1078FC00BDE8F08F0235F9D10123B371F6E7544599
:10790C0006D15946484600F02BF808B17771EDE7DF
:10791C00D9F808000368CDE90CA6CDE90A4BDC695F
:10792C003A4643462946A44601B0BDE8F04F6047AD
:10793C002DE9F04107460C4615461E46FFF76DFF34
:10794C0048B9B86803689F692A4633462146BC4645
:10795C00BDE8F0416047BDE8F081704700207047FA
:10796C00814208B50ED0406803782A2B0CD04968A8
:10797C000B782A2B08BF0131FCF74AFBB0FA80F0D8
:10798C00400908BD0120FCE70020FAE7002301466E
:10799C001A46184600F05CB90A22002100F04EB9D4
:1079AC00024B1844407800F097007047A9820B00F6
:1079BC000A44914200F1FF3300D1704710B511F821
:1079CC00014B03F8014F9142F9D110BD884210B51B
:1079DC0001EB020402D98442234607D8431EA1427C
:1079EC0008D011F8012B03F8012FF8E702440146E7
:1079FC008A4200D110BD13F8014D02F8014DF7E792
:107A0C0002440346934200D1704703F8011BF9E787
:107A1C0038B5104B1D68AB6B0446B3B91820FDF795
:107A2C0099F80246A86320B90B4B0C484221FDF78C
:107A3C00C9F80B490B4BC0E900130B4B83600B23AC
:107A4C00838100210120C2E90401AB6B00221C617F
:107A5C005A6138BD70DD032039820B0050820B0057
:107A6C000E33CDAB34126DE6ECDE0500C9B2034625
:107A7C0010F8012B1AB18A42F9D118467047002927
:107A8C0018BF0023F9E710B50446FFF7EFFF18B94C
:107A9C002046FCF7C7FA204410BD034611F8012B11
:107AAC0003F8012B002AF9D170470000024B014664
:107ABC00186800F003B800BF70DD032037B504462A
:107ACC0008460D46FCF7AEFA421C114620460192C0
:107ADC00FDF768F8044618B1019A2946FFF768FFCC
:107AEC00204603B030BD10B57AB103460139841875
:107AFC0013F8010B11F8012F904201D1A34201D1CF
:107B0C00801A10BD0028F3D1FAE71046F9E738B512
:107B1C0003460C4669B9BDE83840FFF7A7BF431CC4
:107B2C00054621461846FFF7A1FF0028F7D1284645
:107B3C0038BD0025F5E70000012B2DE9F04701D0F9
:107B4C00242B06D9FDF736F8162303600020BDE878
:107B5C00F087DFF8E4C00D462E4615F8014B14F8FB
:107B6C000C7017F00807F7D12D2C32D12C78012787
:107B7C00B51C002B5BD0102B09D1302C07D12C78E5
:107B8C0004F0DF04582C4DD16C781023023507F12A
:107B9C00004808F1FF384FF0000CB8FBF3F96646CB
:107BAC0003FB198AA4F1300EBEF1090F16D87446E6
:107BBC00A34224DDBCF1000F1EDBB1451CD301D167
:107BCC00A24519DB06FB03464FF0010C15F8014BDF
:107BDC00E8E72B2C04BF2C78B51CCAE7A4F1410EA6
:107BEC00BEF1190F01D8373CE2E7A4F1610EBEF1EA
:107BFC00190F04D8573CDBE74FF0FF3CE6E7BCF12C
:107C0C00000F05DA22230360464642B930469EE750
:107C1C0007B17642002AF9D0BCF1000F00D0691EE2
:107C2C001160F3E73024002BB1D10823AFE7302CDF
:107C3C00A5D00A23ABE700BFAA820B0013460A4665
:107C4C00014602480068FFF777BF00BF70DD0320D4
:107C5C002DE9F843DFF8B8800646D8F800001F4637
:107C6C000D46914600F056F8254B1C6834B9254C4E
:107C7C001C60254B13B11B68C4F8883063681F2B3C
:107C8C0007DDD8F8000000F047F84FF0FF30BDE8F2
:107C9C00F8834EB3D4F8880088B91C4B23B9D8F8B4
:107CAC00000000F038F8F0E74FF48470FCF752FF56
:107CBC000028F4D00023C0E94033C4F8880063687E
:107CCC0040F8239001229A4000EB8301D0F8003158
:107CDC001343C0F80031022EC1F8807002BFD0F8F7
:107CEC0004311343C0F804316368D8F800005A1CFF
:107CFC000233626044F8235000F00EF80020C6E70F
:107D0C00F4E7032068E7032000000000614B0B0040
:107D1C00D4DD0320704770477047000041400B00D2
:107D2C007D400B00A5400B00A9400B00000000009B
:107D3C0043616C6C206F6E20707572652076697271
:107D4C007475616C0020485454502F312E300D0A3C
:107D5C0000636C6F736500436F6E6E656374696F5F
:107D6C006E00484F535400436F6E74656E742D4C07
:107D7C00656E67746800504F53540076616C75657E
:107D8C000031302E302E302E37370000000000002E
:107D9C00000000000000000000000000C5400B00C7
:107DAC00C1430B000000000000000000C5430B00A5
:107DBC00F9430B0081640B0025660B00436F6E7456
:107DCC00656E742D54797065006170706C696361B7
:107DDC0074696F6E2F6A736F6E00416363657074A4
:107DEC00002A2F2A00000000000000000000000004
:107DFC000000000000000000DD4C0B00E34C0B0009
:107E0C00214D0B00F14C0B00DF4C0B00000000006F
:107E1C00000000006B520B0061520B0057520B001C
:107E2C004D520B0041520B0035520B0011680B00E8
:107E3C0019680B0029520B0021520B0017520B0032
:107E4C000D520B0041690B0049680B0051680B0087
:107E5C00000000000000000089520B00D3520B0000
:107E6C00AB520B008B520B00B3520B00BB520B00EE
:107E7C00C3520B00CB520B007B6A0B0000000000BE
:107E8C00000000002D530B001D530B001F530B0063
:107E9C0025750075253034780000000000000000C6
:107EAC000000000067540B0069540B0077540B0062
:107EBC009D540B00626175640053657269616C00BE
:107ECC0053657269616C31004A534F4E537472653D
:107EDC00616D4C6F6748616E646C657200617070A7
:107EEC0000253031307520005D20002C2000282921
:107EFC003A2000205B00636F6465203D20002569FB
:107F0C000064657461696C73203D20006D0066002F
:107F1C006C6E00666E00636F646500646574616905
:107F2C006C000000000000000000000001590B0074
:107F3C0027590B00D9580B00D3540B00000000003C
:107F4C0000000000895D0B00A15D0B0081640B003B
:107F5C0025660B000000000000000000B55D0B0062
:107F6C00C95D0B005D660B00ED580B0000000000B6
:107F7C0000000000FF580B0035590B00E5630B00A7
:107F8C00EF580B000000000000000000FD580B0033
:107F9C0043590B00F15C0B0065590B0094E6032070
:107FAC0018E70320D4E603200000000000000000C6
:107FBC00D1670B00DB670B00E5670B00EF670B006D
:107FCC00F9670B0005680B0011680B0019680B00B2
:107FDC0021680B002D680B0035680B003F680B0007
:107FEC0041690B0049680B0051680B007769726995
:107FFC006E670072656376206572726F72203D2029
:10800C00256400000000000000000000D96C0B008B
:10801C00FD6C0B0027720B000B6D0B00DD6C0B0065
:10802C000000000000000000896D0B00BD6D0B000E
:10803C00556C0B006F6C0B00BD700B00996C0B003A
:10804C003B6F0B00CD6C0B007B6A0B00CD6F0B00F4
:10805C000D6E0B00696F0B0071710B00096F0B003B
:10806C00CF6C0B00816C0B00116D0B00ED6D0B00D8
:10807C0025592D256D2D25645425483A254D3A2535
:10808C0053257A0061736374696D6500000000000C
:10809C000000000041720B00AD720B0085720B00EA
:1080AC0069690B0055720B0071720B0063720B0047
:1080BC007F720B007B6A0B0043720B0047720B0044
:1080CC000000000000000000FF720B0067730B0043
:1080DC003D730B0069690B002F730B0001730B00D0
:1080EC0011730B0061730B007B6A0B0021730B0087
:1080FC00F9720B00000000000000000067740B0018
:10810C005D740B0053740B0009740B0047740B0067
:10811C003B740B0011680B0019680B002F740B00DB
:10812C0027740B001D740B0013740B0041690B00BA
:10813C0049680B0051680B0000537431395F537060
:10814C005F6D616B655F7368617265645F746167B5
:10815C0000000000A0810B0045810B0000820B0089
:10816C0074810B0024820B004E31305F5F63787892
:10817C00616269763131375F5F636C6173735F7411
:10818C007970655F696E666F450000000000000045
:10819C0068810B00C1770B00D5770B0069790B0058
:1081AC0069790B003F780B0081770B0027780B0067
:1081BC00E9770B00B3770B0000820B00D0810B002A
:1081CC0068810B004E31305F5F637878616269764D
:1081DC003132305F5F73695F636C6173735F7479A5
:1081EC0070655F696E666F4500000000000000005E
:1081FC00C4810B0069780B007D780B0069790B004A
:10820C0069790B003F780B0081770B003D790B00EF
:10821C00C9780B0091780B00A0810B002C820B000D
:10822C00537439747970655F696E666F0052454599
:10823C004E54206D616C6C6F632073756363656560
:10824C00646564002F746D702F6A656E6B696E7354
:10825C002D4743432D31302D706970656C696E6507
:10826C002D34385F32303230313132345F31363088
:10827C00363138303633392F7372632F6E65776C25
:10828C0069622F6E65776C69622F6C6962632F73FC
:10829C0074646C69622F72616E642E63000020201E
:1082AC00202020202020202828282828202020209A
:1082BC00202020202020202020202020202088105A
:1082CC0010101010101010101010101010100404BA
:1082DC0004040404040404041010101010101041C1
:1082EC004141414141010101010101010101010132
:1082FC0001010101010101010110101010101042C7
:10830C004242424242020202020202020202020201
:10831C0002020202020202020210101010200000DF
:10832C000000000000000000000000000000000041
:10833C000000000000000000000000000000000031
:10834C000000000000000000000000000000000021
:10835C000000000000000000000000000000000011
:10836C000000000000000000000000000000000001
:10837C0000000000000000000000000000000000F1
:10838C0000000000000000000000000000000000E1
:10839C0000000000000000000000000000000000D1
:1083AC0059410B00C1450B00CD4C0B0075520B0015
:1083BC0071640B0055690B00316A0B00316C0B00BA
:0883CC002D720B0071740B000F
:1083D400040000001400000003000000474E550094
:1083E400052E6B45B1CE42A98065C9CC7A2052C610
:0483F40002C258CD9C
:1083F800C87D0B00D57D0B00E67D0B00ED7D0B00E5
:108408000000000000000000807F0B00987F0B0038
:1084180090800B0074DD03200000000000000000C5
:108428000000000000000000000000000000000044
:108438000000000000000000000000000000000034
:108448000000000000000000000000000000000024
:108458000000000000000000000000000000000014
:108468000000000000000000000000000000000004
:0C8478000000000000000000F8E70320F6
:0484840000000000F4
:10848E0000000102030405060708090A0B0C0D0E75
:10849E000F101112131415161718191A1B1C1D1E66
:0484AE001F20280063
:0484B20078563412B2
:04000003B000401CED
:00000001FF
