:02000002B0004C
:1040000000400B00BEC50D00000006000C000502BC
:084010000401D51700000000B7
:04401800EC7D0D002E
:1040200081F0004102E000BF83F0004330B54FEA69
:1040300041044FEA430594EA050F08BF90EA020FD6
:104040001FBF54EA000C55EA020C7FEA645C7FEA69
:10405000655C00F0E2804FEA5454D4EB5555B8BF8C
:104060006D420CDD2C4480EA020281EA030382EAFD
:10407000000083EA010180EA020281EA0303362D8F
:1040800088BF30BD11F0004F4FEA01314FF4801C62
:104090004CEA113102D0404261EB410113F0004F74
:1040A0004FEA03334CEA133302D0524263EB43032B
:1040B00094EA050F00F0A780A4F10104D5F1200EC9
:1040C0000DDB02FA0EFC22FA05F2801841F1000124
:1040D00003FA0EF2801843FA05F359410EE0A5F1F8
:1040E00020050EF1200E012A03FA0EFC28BF4CF029
:1040F000020C43FA05F3C01851EBE37101F00045DF
:1041000007D54FF0000EDCF1000C7EEB00006EEBEB
:104110000101B1F5801F1BD3B1F5001F0CD3490875
:104120005FEA30004FEA3C0C04F101044FEA4452CC
:1041300012F5800F80F09A80BCF1004F08BF5FEA53
:10414000500C50F1000041EB045141EA050130BD33
:104150005FEA4C0C404141EB0101013C28BFB1F545
:10416000801FE9D291F0000F04BF01460020B1FA90
:1041700081F308BF2033A3F10B03B3F120020CDA63
:104180000C3208DD02F1140CC2F10C0201FA0CF041
:1041900021FA02F10CE002F11402D8BFC2F1200CA6
:1041A00001FA02F120FA0CFCDCBF41EA0C0190405C
:1041B000E41AA2BF01EB0451294330BD6FEA0404A5
:1041C0001F3C1CDA0C340EDC04F11404C4F1200290
:1041D00020FA04F001FA02F340EA030021FA04F3A2
:1041E00045EA030130BDC4F10C04C4F1200220FAF9
:1041F00002F001FA04F340EA0300294630BD21FA37
:1042000004F0294630BD94F0000F83F4801306BFFC
:1042100081F480110134013D4EE77FEA645C18BFF0
:104220007FEA655C29D094EA050F08BF90EA020F87
:1042300005D054EA000C04BF1946104630BD91EA7F
:10424000030F1EBF0021002030BD5FEA545C05D182
:104250004000494128BF41F0004130BD14F58004C1
:104260003CBF01F5801130BD01F0004545F0FE4135
:1042700041F470014FF0000030BD7FEA645C1ABF6A
:10428000194610467FEA655C1CBF0B46024650EAA1
:10429000013406BF52EA033591EA030F41F40021CD
:1042A00030BD00BF90F0000F04BF0021704730B553
:1042B0004FF4806404F132044FF000054FF0000128
:1042C00050E700BF90F0000F04BF0021704730B5E9
:1042D0004FF4806404F1320410F0004548BF4042BE
:1042E0004FF000013EE700BF42004FEAE2014FEA13
:1042F00031014FEA02701FBF12F07F4393F07F4FEE
:1043000081F06051704732F07F4208BF704793F0F0
:104310007F4F04BF41F40021704730B54FF4607403
:1043200001F0004521F000411CE700BF50EA010206
:1043300008BF704730B54FF000050AE050EA0102AF
:1043400008BF704730B511F0004502D5404261EB1F
:1043500041014FF4806404F132045FEA915C3FF460
:10436000D8AE4FF003025FEADC0C18BF03325FEAFD
:10437000DC0C18BF033202EBDC02C2F1200300FAAE
:1043800003FC20FA02F001FA03FE40EA0E0021FAD3
:1043900002F11444BDE600BF70B54FF0FF0C4CF4C1
:1043A000E06C1CEA11541DBF1CEA135594EA0C0F73
:1043B00095EA0C0F00F0DEF82C4481EA030621EAAE
:1043C0004C5123EA4C5350EA013518BF52EA0335E9
:1043D00041F4801143F4801338D0A0FB02CE4FF09B
:1043E0000005E1FB02E506F00042E0FB03E54FF0CB
:1043F0000006E1FB03569CF0000F18BF4EF0010EC3
:10440000A4F1FF04B6F5007F64F5407404D25FEABE
:104410004E0E6D4146EB060642EAC62141EA555171
:104420004FEAC52040EA5E504FEACE2EB4F1FD0CB3
:1044300088BFBCF5E06F1ED8BEF1004F08BF5FEA31
:10444000500E50F1000041EB045170BD06F00046E3
:1044500046EA010140EA020081EA0301B4EB5C0490
:10446000C2BFD4EB0C0541EA045170BD41F4801188
:104470004FF0000E013C00F3AB8014F1360FDEBFAD
:10448000002001F0004170BDC4F10004203C35DA89
:104490000C341BDC04F11404C4F1200500FA05F30C
:1044A00020FA04F001FA05F240EA020001F00042AD
:1044B00021F0004110EBD37021FA04F642EB060123
:1044C0005EEA430E08BF20EAD37070BDC4F10C044D
:1044D000C4F1200500FA04F320FA05F001FA04F211
:1044E00040EA020001F0004110EBD37041F10001FD
:1044F0005EEA430E08BF20EAD37070BDC4F1200508
:1045000000FA05F24EEA020E20FA04F301FA05F26F
:1045100043EA020321FA04F001F0004121FA04F217
:1045200020EA020000EBD3705EEA430E08BF20EAE7
:10453000D37070BD94F0000F0FD101F00046400021
:1045400041EB010111F4801F08BF013CF7D041EAA3
:10455000060195F0000F18BF704703F000465200A7
:1045600043EB030313F4801F08BF013DF7D043EA78
:104570000603704794EA0C0F0CEA135518BF95EA2E
:104580000C0F0CD050EA410618BF52EA4306D1D1B5
:1045900081EA030101F000414FF0000070BD50EAD4
:1045A000410606BF1046194652EA430619D094EA5E
:1045B0000C0F02D150EA013613D195EA0C0F05D148
:1045C00052EA03361CBF104619460AD181EA03019C
:1045D00001F0004141F0FE4141F470014FF0000054
:1045E00070BD41F0FE4141F4780170BD70B54FF0EF
:1045F000FF0C4CF4E06C1CEA11541DBF1CEA13556F
:1046000094EA0C0F95EA0C0F00F0A7F8A4EB050450
:1046100081EA030E52EA03354FEA013100F0888047
:104620004FEA03334FF0805545EA131343EA126310
:104630004FEA022245EA111545EA10654FEA0026C5
:104640000EF000419D4208BF964244F1FD0404F57E
:10465000407402D25B084FEA3202B61A65EB0305DA
:104660005B084FEA32024FF480104FF4002CB6EB97
:10467000020E75EB030E22BFB61A754640EA0C0017
:104680005B084FEA3202B6EB020E75EB030E22BF57
:10469000B61A754640EA5C005B084FEA3202B6EB98
:1046A000020E75EB030E22BFB61A754640EA9C0057
:1046B0005B084FEA3202B6EB020E75EB030E22BF27
:1046C000B61A754640EADC0055EA060E18D04FEAE5
:1046D000051545EA16754FEA06164FEAC30343EA85
:1046E00052734FEAC2025FEA1C1CC0D111F4801F52
:1046F0000BD141EA00014FF000004FF0004CB6E74B
:1047000011F4801F04BF01430020B4F1FD0C88BFE9
:10471000BCF5E06F3FF6AFAEB5EB030C04BFB6EBF4
:10472000020C5FEA500C50F1000041EB045170BDE7
:104730000EF0004E4EEA113114EB5C04C2BFD4EB14
:104740000C0541EA045170BD41F480114FF0000E98
:10475000013C90E645EA060E8DE60CEA135594EA14
:104760000C0F08BF95EA0C0F3FF43BAF94EA0C0F17
:104770000AD150EA01347FF434AF95EA0C0F7FF48C
:1047800025AF104619462CE795EA0C0F06D152EAE0
:1047900003353FF4FDAE1046194622E750EA4106C4
:1047A00018BF52EA43067FF4C5AE50EA41047FF4D5
:1047B0000DAF52EA43057FF4EBAE12E74FF0FF3C3A
:1047C00006E000BF4FF0010C02E000BF4FF0010C0B
:1047D0004DF804CD4FEA410C7FEA6C5C4FEA430C84
:1047E00018BF7FEA6C5C1BD001B050EA410C0CBFD3
:1047F00052EA430C91EA030F02BF90EA020F002035
:10480000704710F1000F91EA030F58BF994208BF9B
:1048100090422CBFD8176FEAE37040F00100704758
:104820004FEA410C7FEA6C5C02D150EA013C07D1AF
:104830004FEA430C7FEA6C5CD6D152EA033CD3D0FA
:104840005DF8040B704700BF8446104662468C46F4
:104850001946634600E000BF01B5FFF7B7FF002827
:1048600048BF10F1000F01BD4DF808EDFFF7F4FF50
:104870000CBF012000205DF808FB00BF4DF808EDDB
:10488000FFF7EAFF34BF012000205DF808FB00BFFE
:104890004DF808EDFFF7E0FF94BF012000205DF820
:1048A00008FB00BF4DF808EDFFF7CEFF94BF0120D5
:1048B00000205DF808FB00BF4DF808EDFFF7C4FFCE
:1048C00034BF012000205DF808FB00BF4FEA410C17
:1048D0007FEA6C5C02D150EA013C0AD14FEA430CFA
:1048E0007FEA6C5C02D152EA033C02D14FF0000037
:1048F00070474FF0010070474FEA4102B2F1E043C8
:1049000024BFB3F5001CDCF1FE5C0DD901F0004CB6
:104910004FEAC0024CEA5070B2F1004F40EB830006
:1049200008BF20F00100704711F0804F21D113F132
:104930003872BCBF01F00040704741F480114FEA6B
:104940005252C2F11802C2F1200C10FA0CF320FAF4
:1049500002F018BF40F001004FEAC1234FEAD32311
:1049600003FA0CFC40EA0C0023FA02F34FEA43037B
:10497000CCE77FEA625307D150EA01331EBF4FF004
:10498000FE4040F44000704701F0004040F0FE401F
:1049900040F40000704700BF53B94AB9002908BF6E
:1049A00000281CBF4FF0FF314FF0FF3000F092B9EC
:1049B000ADF1080C6DE904CE00F024F8DDF804E058
:1049C000DDE9022304B07047D0B50C4B0022064647
:1049D0000F46FFF7E1FC00F07FF90446FFF762FCA9
:1049E000074B0022FFF7D8FC02460B4630463946FB
:1049F000FFF71AFB00F070F92146D0BD0000F03D32
:104A00000000F0412DE9F047089D04468E46002B3A
:104A10004DD18A42944669D9B2FA82F252B101FA72
:104A200002F3C2F1200120FA01F10CFA02FC41EA82
:104A3000030E94404FEA1C48210CBEFBF8F61FFA07
:104A40008CF708FB16E341EA034306FB07F19942A2
:104A50000AD91CEB030306F1FF3080F01F81994255
:104A600040F21C81023E63445B1AA4B2B3FBF8F02F
:104A700008FB103344EA034400FB07F7A7420AD9B6
:104A80001CEB040400F1FF3380F00A81A74240F2DE
:104A900007816444023840EA0640E41B00261DB149
:104AA000D4400023C5E900433146BDE8F0878B427E
:104AB00009D9002D00F0EF800026C5E9000130463D
:104AC0003146BDE8F087B3FA83F6002E4AD18B4217
:104AD00002D3824200F2F980841A61EB03030120C1
:104AE0009E46002DE0D0C5E9004EDDE702B9FFDEAD
:104AF000B2FA82F2002A40F09280A1EB0C014FEA58
:104B00001C471FFA8CFE0126200CB1FBF7F307FBB4
:104B1000131140EA01410EFB03F0884208D91CEB57
:104B2000010103F1FF3802D2884200F2CB804346F4
:104B3000091AA4B2B1FBF7F007FB101144EA0144D3
:104B40000EFB00FEA64508D91CEB040400F1FF3162
:104B500002D2A64500F2BB800846A4EB0E0440EA50
:104B600003409CE7C6F12007B34022FA07FC4CEA59
:104B7000030C20FA07F401FA06F31C43F9404FEA4C
:104B80001C4900FA06F3B1FBF9F8200C1FFA8CFE61
:104B900009FB181140EA014108FB0EF0884202FAB5
:104BA00006F20BD91CEB010108F1FF3A80F0888076
:104BB000884240F28580A8F102086144091AA4B233
:104BC000B1FBF9F009FB101144EA014100FB0EFEB4
:104BD0008E4508D91CEB010100F1FF346CD28E45E3
:104BE0006AD90238614440EA0840A0FB0294A1EB74
:104BF0000E01A142C846A64656D353D05DB1B3EBD1
:104C0000080261EB0E0101FA07F722FA06F3F14000
:104C10001F43C5E9007100263146BDE8F087C2F1A7
:104C20002003D8400CFA02FC21FA03F3914001431F
:104C30004FEA1C471FFA8CFEB3FBF7F007FB103658
:104C40000B0C43EA064300FB0EF69E4204FA02F404
:104C500008D91CEB030300F1FF382FD29E422DD957
:104C6000023863449B1B89B2B3FBF7F607FB16338C
:104C700041EA034106FB0EF38B4208D91CEB01010C
:104C800006F1FF3816D28B4214D9023E6144C91A8C
:104C900046EA004638E72E46284605E70646E3E69C
:104CA0001846F8E64B45A9D2B9EB020864EB0C0EA6
:104CB0000138A3E74646EAE7204694E74046D1E7B5
:104CC000D0467BE7023B614432E7304609E7644463
:104CD000023842E7704700BF4A0011D212F50012B5
:104CE00011D20DD56FF47873B3EB62520ED44FEA44
:104CF000C12343F0004343EA505323FA02F07047C4
:104D00004FF00000704750EA013002D14FF0FF3001
:104D100070474FF0000070470000000000000000E6
:104D200001F0FF01102A2BDB10F0070F08D010F85C
:104D3000013B013A8B422DD010F0070F42B3F6D160
:104D4000F0B441EA012141EA014122F007047FF079
:104D500000070023F0E80256083C85EA010586EAD0
:104D6000010685FA47F5A3FA87F586FA47F6A5FA0C
:104D700087F68EB9EED1F0BC01F0FF0102F0070218
:104D800032B110F8013B013A83EA010313B1F8D1C3
:104D90000020704701387047002D06BF35460338A4
:104DA000073815F0010F07D1013015F4807F02BFDD
:104DB000013015F4C03F0130F0BC0138704700BF2E
:104DC00010F8012B11F8013B012A28BF9A42F7D0B5
:104DD000D01A7047034613F8012B002AFBD1181A8A
:104DE000013870474FEA410212F5001215D211D571
:104DF0006FF47873B3EB625212D94FEAC12343F0D8
:104E0000004343EA505311F0004F23FA02F018BF59
:104E1000404270474FF00000704750EA013005D122
:104E200011F0004008BF6FF0004070474FF00000E5
:104E3000704700BF38B50022002304460D46FFF737
:104E40001DFD28B920462946BDE83840FFF7BCBD06
:104E5000204605F10041FFF7B7FD404261EB4101FB
:104E600038BD00BF09480A49884208B505D0094A3B
:104E7000824202D0121A1DF09BFA0748074A00210D
:104E8000121A1DF0BDFA014808BD00BFD8CB03209F
:104E9000C0C20D00A8CE0320A8CE0320FCE703204B
:104EA00070B5074E074C03F08FFBA41BA408002528
:104EB000AC4200D170BD56F8043B98470135F7E786
:104EC0005CC20D0094C20D0000F0ACB808B500F053
:104ED000D5F8BDE8084003F02FBB00F00BBF00F091
:104EE00009BF00F00FBF00F00DBF00F00BBF0000C6
:104EF00000487047EF7F0D0008B5034A03490C20B6
:104F000000F014FEFEE700BFAD580B00007E0D0060
:104F10000078B0FA80F040097047012303707047B1
:104F20007047000098B502F1080323F0070300AFB3
:104F3000ADEB030D144668461DF03AFA0023124902
:104F40000DF804306846FFF73BFF024648B90146BA
:104F5000FF2002F0AEFD4FF47A7000F03BFFBD463B
:104F600098BD0A496846FFF72BFF024608B9FF21A2
:104F7000EFE707496846FFF723FFFF2201460028B5
:104F8000E7D011461046E4E7157E0D00197E0D00AE
:104F90001F7E0D0013B5054B1B788DF800303C23A8
:104FA000044601F0A3F8204602B010BDB8CE03209D
:104FB0000A4B10B50446036001F062FE214602F080
:104FC000ACF803F033FA03F025FA2046044B40F81E
:104FD000043B01F02BFF204610BD00BF007F0D00F9
:104FE000E87E0D0010B50446FFF7E2FF20462421BD
:104FF000FFF77BFF204610BD38B5046805467CB13D
:105000006368013B63605BB9236820469B689847EF
:10501000A368013BA3601BB923682046DB6898475F
:10502000284638BD1FB5114C03F000FA4FF4165155
:1050300003F0ECF90E4A21466846FFF7ABFF01A8E2
:10504000FFF7DAFF684600F0CDFD0099094800F04F
:105050004DFB684602F070FD074A21466846FFF79F
:1050600099FF01A8FFF7C8FF04B010BD347E0D0002
:10507000247E0D00BCCE03203C7E0D0007B5194AEE
:1050800019496846FFF786FF01A8FFF7B5FF1748E3
:1050900000F03CFA18B3164A13496846FFF77AFF46
:1050A00001A8FFF7A9FF134A0F496846FFF772FFEF
:1050B00001A8FFF7A1FF104A10490C4800F0A1FB1E
:1050C0000F4A09496846FFF765FF01A8FFF794FFFB
:1050D0004FF47A7003B05DF804EB00F07BBE094A30
:1050E000DAE700BF517E0D00347E0D00BCCE0320F8
:1050F000627E0D008E7E0D00AE7E0D00B77E0D002F
:10510000C97E0D00767E0D0070B5D0E900531426DF
:10511000044606FB0356AE4204D0284602F00CFDBE
:105120001435F8E7206800F0EDFD204670BD884298
:10513000F8B504460D46164616D9904215D2A2F18E
:105140001406751AA1F114072C44B7421CD02CB1D7
:105150003146204602F06DFD337C2374304602F068
:10516000EBFC143E143CF0E70ED0B5420CD02CB151
:105170002946204602F05DFD2B7C2374284602F070
:10518000DBFC14351434F0E7F8BD2DE9F0410023C1
:10519000C0E9003383604F689F4204460E4623DD1A
:1051A0004FF0140808FB07F000F0A4FD0546D8B145
:1051B000D4E9001208FB0212FFF7B9FF206800F0E3
:1051C000A1FD2560A760D6E9007308FB0378B84508
:1051D00008D03946284602F046FD3B7C2B74143734
:1051E0001435F4E7736863602046BDE8F081000081
:1051F00070B52A4B2A4800248EB01C7003F094FA34
:1052000000F05CFB274B2849186041F215620094BE
:10521000264B274800F09EF8264B274A9A60C3E9A0
:105220000044012000F0A2FCCDE90244049403F004
:10523000FDF8224C054602A905A8FFF7A6FF264661
:1052400005A908A8FFF7A1FF1D4B46F8043B08A9D4
:105250000BA8FFF79AFF0BAA1E21304601F0FEFFB4
:105260000BA8FFF751FF08A8FFF74EFF154B23606F
:10527000256205A8FFF748FF134B236003F0D6F81B
:105280004FF4165103F0C2F801F0FAFC214601F088
:10529000FDFE02A8FFF738FF0EB070BDB8CE0320A8
:1052A000B9CE03201CCF0320D67E0D00254F0B0066
:1052B000BCCE0320ACCE03200000FFFF20CF032094
:1052C000E87E0D0024800D00007F0D0091F85C3019
:1052D00010B50446016013B1886D00F0AFFA2046A6
:1052E00010BD10B5036893F85C20044612B1986DA8
:1052F00000F0ACFA204610BDF8B51F469DF82430EA
:1053000004460D4616462BB1012380F85C30583018
:1053100000F08CFA089B23630023636306B1A66444
:1053200025B1294604F1380002F0A8FC069B23654C
:10533000079BE069A4F84C70FF2BB8BFFF23A4F8CB
:10534000543008B1FFF7CFFDB4F85400FFF7C7FDA4
:10535000E061F8BD2DE9FF41044600251746984657
:105360000E4602F087FF0D49E56104F1380002F0B6
:105370002EFC9DF82830A564CDE90283FF220F237F
:10538000CDE90032204684F85C503B462A4631463F
:10539000FFF7B2FF204604B0BDE8F081EF7F0D00BB
:1053A00010B50446204602F0C1FE0028FAD020467F
:1053B00002F0AAFCC0B210BD2DE9F04705468846B0
:1053C000FFF7EEFFEB691870EB6993F800A04FF060
:1053D00001090AF0F00A00274C462846FFF7E0FFD3
:1053E0002646EB69985500F07F0313FB09F31F4431
:1053F00001340306A4B2BFB24FEAC919EDD4631E4B
:10540000BAF1300F88F800301ED12846FFF7C8FFE8
:10541000EB6918552846FFF7C3FFF41C0236B6B2F5
:10542000EB69A4B298550226B6B2BE420ED2284607
:10543000FFF7B6FFB5F85430A34284BFEB691855A7
:105440000134A4B20136EFE70026EDE7B5F8543099
:10545000A3422CBF20460020BDE8F0872DE9F34190
:1054600015461E461A4607460023964602A802F035
:105470007F0CBEF17F0F03F10104034488BF4CF0A1
:10548000800CBEF17F0F4FEAD212E4B203F804CCD5
:105490001ED8C4F10403C4F10500E954224601A951
:1054A000284405EB03081CF083FF721C224441468C
:1054B000384602F014FC054600F000FA621C7862DF
:1054C0003244A8B2131A5842584102B0BDE8F081E4
:1054D0002346CAE70233F0B5054698B20023CE5CF6
:1054E0009CB256B1B5F854C0844503F1010704D904
:1054F000441C16543B46A0B2F1E799B2411A0A4443
:10550000210A02F8021C02F8013CF0BD38B504463D
:1055100002F032FD002814BF0125002502D12046EB
:1055200002F05EFE284638BD2DE9F04788B00446FB
:10553000DDF840809DF850A0894617461E46FFF7CB
:10554000E5FF0546002840F0CD80214601A8FFF781
:10555000BDFEA16C002940F08880B4F84C20A16BFE
:105560002B46204602F08AFC00287AD001232384AF
:105570009DF85430E269042B5B4B40F08180186841
:1055800099889B79ADF80C108DF80E300290C2F816
:1055900005009DF80E30BDF80C10A2F80910D3726A
:1055A0000C23B8F1000F00F081809DF848009DF8B1
:1055B0004420400140EAC20040F00600C0B2BAF107
:1055C000000F01D100F0FD001FB1002E70D140F09E
:1055D0008000E269D054226DE169581C12120A540D
:1055E0009A1CE169206D88540333E26949462046DC
:1055F000FFF770FF0346B8F1000F0BD0E269414698
:105600002046FFF767FFE269139903462046FFF73C
:1056100061FF034667B1E26939462046FFF75AFF4A
:1056200003462EB1E26931462046FFF753FF034699
:10563000053BE2699BB210212046FFF70FFF00F007
:105640003DF9C4E909004FF47A76204602F06EFD78
:1056500088BB00F033F9A36AC01A236D73439842E4
:10566000F3D9204602F0BCFD35E002A800F066FF49
:10567000B4F84C202B4602A9204602F0DFFC73E769
:10568000D3F80700D3F80B10DB7B0DF1080CACE866
:1056900003008CF8003002AB03CBC2F80500C2F85F
:1056A00009109CF8003053730E237AE7022086E736
:1056B00040F0C0008DE702A92046FFF77DFE0428D8
:1056C000CFD1E369DE78002ECBD100F0F7F80125C9
:1056D000A06284F82C6001A8FFF703FE284608B0FA
:1056E000BDE8F0870025F9E7DC7D0D007FB50123DB
:1056F0000422CDE904320023CDE90233CDE90033A1
:105700001A46FFF711FF07B05DF804FB2DE9F74FCC
:10571000DDF83C809DF834509DF8389004468B4667
:1057200016461F46FFF7F2FE8246002851D021465A
:1057300001A8FFF7CBFDB4F85420E06900211CF06C
:105740005FFE0523E26959462046FFF7C3FE6B1E44
:10575000012B15D8218CE369013189B22184090A12
:105760001954421CE369218C92B20230995480B2E0
:10577000B8F1000F04D0238C5A1C2284A8F8003002
:1057800000210B188F42E2699BB20AD9B4F854C0C9
:105790009C4506D916F801C002F803C0013189B250
:1057A000EFE79DF8301000290CBF30213121B9F10D
:1057B000000F01D041F00801022D0ED141F004018B
:1057C000053B9BB22046FFF749FE824601A8FFF742
:1057D00088FD504603B0BDE8F08F012D08BF41F0B1
:1057E0000201EDE71FB5089C0394002402949DF884
:1057F0001C4001949DF818400094FFF787FF04B007
:1058000010BD30B587B00446104605910492FFF7ED
:10581000E1FA00250346CDE90155DDE904210095B3
:105820002046FFF7DFFF07B030BD000008B5024B90
:105830001B681B6B019308BD4802030008B5024BAF
:105840001B689B6B019308BD4802030008B5024B1F
:105850001B681B6C019308BD4802030008B5024B8E
:105860001B685B6C019308BD4802030008B5024B3E
:105870001B689B6C019308BD4802030008B5024BEE
:105880001B68DB6C019308BD4802030008B5024B9E
:105890001B685B6D019308BD4802030008B5024B0D
:1058A0001B685B68019308BD1802030008B5024B32
:1058B0001B68DB68019308BD1802030008B5024BA2
:1058C0001B685B69019308BD1802030008B5024B11
:1058D0001B685B69019308BD6C02030008B5024BAD
:1058E0001B685B69019308BD6402030008B5024BA5
:1058F0001B681B6A019308BD6402030008B5024BD4
:105900001B689B6A019308BD6402030008B5024B43
:105910001B689B68019308BD6802030008B5024B31
:105920001B68DB68019308BD6802030008B5024BE1
:105930001B689B69019308BD3802030008B5024B40
:105940001B68DB69019308BD3802030008B5024BF0
:105950001B681B6A019308BD3802030008B5024B9F
:105960001B689B6A019308BD3802030008B5024B0F
:105970001B681B6B019308BD3802030008B5024B7E
:105980001B689B6B019308BD3802030008B5024BEE
:105990001B685B68019308BD8402030008B5024BD5
:1059A0001B689B68019308BD8402030008B5024B85
:1059B0001B68DB68019308BD8402030008B5024B35
:1059C0001B685B69019308BD8402030008B5024BA4
:1059D0001B68DB69019308BD8402030008B5024B14
:1059E0001B681B6A019308BD8402030008B5024BC3
:1059F0001B689B68019308BD3C02030008B5024B7D
:105A00001B68DB68019308BD3C02030008B5024B2C
:105A10001B681B69019308BD3C02030008B5024BDB
:105A20001B685B69019308BD3C02030008B5024B8B
:105A30001B689B69019308BD3C02030008B5024B3B
:105A40001B68DB69019308BD3C02030008B5024BEB
:105A50001B689B6A019308BD3C02030008B5024B1A
:105A60001B68DB6A019308BD3C02030008B5024BCA
:105A70001B681B6C019308BD3C02030008B5024B78
:105A80001B681B68019308BD4C02030008B5024B5C
:105A90001B685B68019308BD4C02030008B5024B0C
:105AA0001B689B68019308BD4C02030008B5024BBC
:105AB0001B681B69019308BD4C02030008B5024B2B
:105AC0001B685B69019308BD4C02030008B5024BDB
:105AD0001B689B69019308BD4C02030008B5024B8B
:105AE0001B68DB69019308BD4C02030008B5024B3B
:105AF0001B681B6A019308BD4C02030008B5024BEA
:105B00001B685B68019308BD6002030008B5024B87
:105B10001B689B69019308BD6002030008B5024B36
:105B20001B68DB69019308BD6002030008B5024BE6
:105B30001B685B6B019308BD6002030008B5024B54
:105B40001B681B6D019308BD6002030008B5024B82
:105B50001B68DB6E019308BD6002030008B5024BB1
:105B60001B681B6F019308BD6002030008B5024B60
:105B70001B685B68019308BD2002030008B5024B57
:105B80001B685B69019308BD2002030008B5024B46
:105B90001B68DB6C019308BD2002030008B5024BB3
:105BA0001B685B6D019308BD2002030008B5034B21
:105BB0001B68D3F88830019308BD00002002030061
:105BC00008B5034B1B68D3F89430019308BD00005F
:105BD0002002030008B5024B1B685B69019308BDF6
:105BE0004402030008B5024B1B68DB69019308BD42
:105BF0004402030008B5024B1B681B6A019308BDF1
:105C00004402030008B5024B1B68DB6B019308BD1F
:105C10004402030008B5024B1B685B68019308BD92
:105C20004002030008B5024B1B689B68019308BD46
:105C30004002030008B5024B1B68DB68019308BDF6
:105C40004002030008B5024B1B681B69019308BDA5
:105C50004002030008B5024B1B685B69019308BD55
:105C60004002030008B5024B1B689B69019308BD05
:105C70004002030008B5024B1B68DB69019308BDB5
:105C80004002030008B5024B1B681B6A019308BD64
:105C90004002030008B5024B1B681B6B019308BD53
:105CA0004002030008B5024B1B685B6B019308BD03
:105CB0004002030008B5024B1B681B6C019308BD32
:105CC0004002030008B5024B1B685B6C019308BDE2
:105CD0004002030008B5024B1B685B6D019308BDD1
:105CE0004002030008B5024B1B689B6D019308BD81
:105CF0004002030008B5024B1B681B68019308BDF6
:105D00001C02030008B5024B1B685B68019308BDC9
:105D10001C02030008B5024B1B689B68019308BD79
:105D20001C02030008B5024B1B685B69019308BDA8
:105D30001C02030008B5024B1B689B69019308BD58
:105D40001C02030008B5024B1B685B6A019308BD87
:105D50001C02030008B5024B1B68DB6A019308BDF7
:105D60001C02030008B5024B1B681B6B019308BDA6
:105D70001C02030008B5024B1B685B6B019308BD56
:105D80001C02030008B5024B1B689B6B019308BD06
:105D90001C02030008B5024B1B68DB6B019308BDB6
:105DA0001C02030008B5024B1B681B6C019308BD65
:105DB0001C02030008B5024B1B685B6C019308BD15
:105DC0001C02030008B5024B1B689B6C019308BDC5
:105DD0001C0203000021FFF7D1BE10B58368044602
:105DE0000BB90EF0C4F8C3689847A3681BB103222F
:105DF00021462046984720461021BDE81040FFF775
:105E000074B810B58368044613B10322014698475D
:105E1000204610BD10B54368013B0446436063B99A
:105E200003689B689847A368013BA3602BB923686C
:105E30002046DB68BDE81040184710BD70B5D0E9BA
:105E40000053044605EB0316AE4204D0284601F089
:105E500073FE1035F8E72068FFF754FF204670BD49
:105E600013B50B460246D0E900016C4684E80300F6
:105E700093E8030082E8030094E8030083E803004A
:105E800002B010BD024800230360FFF7E7BC00BF6B
:105E900044CF032070470020704710B510210446FE
:105EA000FFF723F8204610BD08B5FFF7F6FF08BD41
:105EB00030B500224FF69C74026084808D888C80FF
:105EC0000C68858004600A6030BD10B50446006827
:105ED000FFF718FF204610BD38B5C468F4B1237829
:105EE000022B03D104F10C00FFF7EFFF656835B119
:105EF0002846FFF786FF10212846FEF7F6FFA56823
:105F000035B12846FFF77DFF10212846FEF7EDFF4B
:105F100020461421BDE83840FEF7E7BF38BD0B68C6
:105F200003604B68436013B15A6801325A6070478E
:105F300037B5044668460D46FFF7F1FF009B019A0E
:105F400023606260002301A801930093FFF754F8D7
:105F500035B1281DFFF750F808212846FEF7C5FF88
:105F6000204603B030BD826810B50AB90DF0FFFFBE
:105F7000BDE81040C368184708B5006800F110017B
:105F8000FFF7F1FF08BD826810B50AB90DF0EFFF09
:105F9000BDE81040C368184708B5006800F110015B
:105FA000FFF7F1FF08BD000038B500230446036089
:105FB00010200D46FEF791FF28B10123C0E90133FF
:105FC000024B0360C5602060204638BD207F0D0075
:105FD00038B5002383608B6804460D462BB102223E
:105FE0009847EB68E360AB68A360204638BD0000CB
:105FF000F0B589B004686846FFF75AFF4FF0020316
:10600000D4E84F2F002A03D1C4E8413F0029F7D13B
:1060100025D104F10C0569462846FFF749FFBFF377
:106020005B8F01236370002004F10803BFF35B8FD3
:1060300053E8006F43E80002002AF9D1BFF35B8FF9
:106040006EB1FFF7A3FD78B129463046FFF78BFF0D
:106050003046FFF7D6FE10213046FEF746FF684671
:10606000FFF733FF09B0F0BD314602A8FFF7B0FFDC
:10607000E068B4F9105008B11CF06EFB06901020D7
:10608000ADF81C50FEF729FF0546E8B100278760F0
:106090001820FEF722FF044688B10146876002A857
:1060A000FFF7DEFE049BA268A360059B049206A98D
:1060B000E268E36004F110000592FFF7F9FE084B77
:1060C000EB60084B2C60AB6006A8FFF7FEFE02A851
:1060D000FFF797FE002229460348FFF75FFDB7E769
:1060E000795F0B00FD610B00DB5D0B002DE9F04FCC
:1060F0008BB005469DF850A00F4690469946FFF795
:1061000069FD07AE834638BB4FF62E73059005A98F
:106110003046ADF81830FFF7CBFE1420FEF7DDFE59
:10612000044648B1022303700123C0E901BB437058
:1061300031460C30FFF7BCFE2846214640F8044BA0
:10614000FFF732FF3046FFF7C0FE05A8FFF7BDFEA0
:1061500028460BB0BDE8F08F0C2300241420CDE9B5
:1061600008440793FEF7B9FE014618B1C0E901449F
:106170000470447004A80391FFF716FF1E4B0893A8
:106180000820FEF7AAFE044610B103A9FFF7C7FED8
:1061900000965FFA8AF34A46414638460994FFF76B
:1061A00029FDB8B9039B5B7803F0FF0293B94FF662
:1061B0009C7305A903A80592ADF81830FFF718FFE6
:1061C00005A8FFF782FE05A80999FFF7B1FE06A80A
:1061D000FEF712FF03A905A8FFF7A1FE059B069A8B
:1061E0002B606A60002306A806930593FEF704FF60
:1061F00004A8FEF701FFABE7C1620B00012AF8B566
:10620000054603D10B6803600020F8BD022A10D0B8
:10621000032AF9D10468002CF6D004F11000FFF72E
:1062200054FE2046FFF7EDFD18212046FEF75DFEE7
:10623000EAE718200E68FEF750FE044650B13146DA
:10624000FFF7C6FE3069B6F9147008B11CF084FA85
:106250002061A7822C60D7E738B5002383608B6864
:1062600004460D462BB102229847EB68E360AB6809
:10627000A360204638BD012A70B5044603D10B68DF
:106280000360002070BD022A0CD0032AF9D10468F3
:10629000002CF6D02046FFF7B4FD14212046FEF76F
:1062A00024FEEEE714200E68FEF717FE054620B127
:1062B0003146FFF7D1FF337C2B742560E1E7000006
:1062C000F0B589B004460D4601A81146FFF730FE2F
:1062D000A4B124B21DB128461CF03EFA054601A81F
:1062E00003A90395ADF81040FFF782FE03A8FFF75E
:1062F000ECFD02A8FEF780FE09B0F0BD019D012370
:10630000D5E84F2F002A03D1C5E8413F0029F7D136
:10631000EFD12B73BFF35B8F6B702B1DBFF35B8FC4
:1063200053E8006F43E80042002AF9D1BFF35B8FC6
:10633000002EDED02046FFF729FC074660B105F1AC
:106340000C013046FFF71FFE3046FFF75AFD1021C3
:106350003046FEF7CAFDCCE7314603A8FFF77CFFC5
:106360002B7B8DF81C301020FEF7B7FD0546D0B111
:1063700087601420FEF7B1FD044678B187600146BE
:1063800003A8FFF76DFD059BA268A360069B05921D
:10639000E268E3609DF81C3006922374064BEB60C4
:1063A000064B2C60AB6003A8FFF72BFD00222946AB
:1063B0000348FFF7F3FBC7E7995F0B0077620B0019
:1063C000DB5D0B00002240681146FFF75BBC00223A
:1063D00040681146FFF766BC40680022FFF75ABCD0
:1063E0004068002281F00101FFF744BC00234068AF
:1063F0001A461946FFF736BC002340681A4619466C
:10640000FFF728BC002240681146FFF71BBC0022A2
:1064100040681146FFF706BC406800220221FFF7E2
:1064200009BC002340681A46FFF7F4BB024B032265
:106430005A60024A1A60704748CF03203C7F0D0023
:10644000704710B518210446FEF74FFD204610BDD9
:10645000F0B5037D062B8DB00E4600F104074FF01A
:10646000000412D000F1080515F8011D0A2230467B
:1064700001F001FBAF42044419D0002CF4D02E21CE
:10648000304601F0F5FA0444EEE72F236A46394618
:106490000A208DF80040FFF721FA6846FEF79AFCC3
:1064A00033680246DB686946304698470446204612
:1064B0000DB0F0BD10B5054B0446112240F8043B69
:1064C00000211BF09DFF204610BD00BF807F0D0006
:1064D0000346074A10B543F8042B01F1100251F8A6
:1064E000044B43F8044B9142F9D10A781A7010BD5D
:1064F000807F0D00037D042B04D14068003818BF55
:1065000001207047062B07D143683BB983682BB93C
:10651000C3681BB90069F1E700207047012070478C
:1065200010B59DF8084044EA032343EA024242EAD8
:10653000016104234160037510BD000007B5064BDF
:106540000360CB7800938B784A780978FFF7E8FFEF
:1065500003B05DF804FB00BF807F0D0000F1100365
:10656000012213F8101C0129184608D153F8041C05
:1065700002EB4102013A03F11003F2D17047022904
:1065800004BF53F8041C5218F4E70EB4F0B588B0F9
:1065900000AF07F13405102155F8042B7A6004464A
:1065A0002B467818FD60FFF7CDFB0F287A681AD9C3
:1065B00000F1080323F007036E46ADEB030D411C09
:1065C0002B466846FD60FFF7BDFB021E04DD236815
:1065D00069469B6820469847B5462037BD46BDE8CA
:1065E000F04003B070470028F7D0236802469B684C
:1065F00007F1100120469847EFE738B50B680360B4
:106600004D6843689D42044608D015B16B6801335C
:106610006B60606808B1FFF7FDFB656038BD07B5CA
:1066200003688DF807109B6801220DF10701984758
:1066300003B05DF804FB0B461146002210B5C0E91B
:106640000022044683600BB9204610BDFFF7D5FF3A
:10665000FAE78368EBB11A78032A1AD8DFE802F068
:106660000417021B0520704702685B685268D05C03
:106670002D2812D0A0F13003092B0ED974280ED08A
:1066800066280CD0A0F16E0358425841704706208E
:106690007047002070470420704703207047022095
:1066A000704710B50446FFF7D4FF02280ED0C31E72
:1066B000DBB2012B14D82268A36850685B68BDE880
:1066C00010400A22002118441CF09ABF2268A368D7
:1066D00052685B68D05CA0F174035842584110BD09
:1066E0000020FCE738B50023C0E9003304460E481B
:1066F000C4E90203A9B10B78032B06D08BB9136848
:1067000058684B68C35C6E2B07D013684D68586897
:106710008B6828445B1BA060E36011462046FFF7AE
:106720006CFF204638BD00BFEF7F0D0038B5002557
:106730000B46C0E90055C0E90255C0E904550446BE
:1067400011464BB11A78012A06D103F11002DB6819
:1067500082604361FFF751FF204638BD10B54369A1
:10676000044663B18068E060013B1030A0602061A6
:10677000636113B1FFF7F2FEA060012000E018464C
:1067800010BD10B57D210446FFF749FF0123237199
:10679000204610BD08B50379012B02D0022B04D08E
:1067A00008BD2C21FFF73BFFFAE73A21FAE710B5C5
:1067B0000446FFF7EFFF20467B21FFF730FF002361
:1067C0002371204610BD000013B504460191FFF768
:1067D000E1FF2368019ADB680349204698470123BB
:1067E0002046237102B010BDE0800D0013B50446B1
:1067F0000191FFF7CFFF2368019ADB680349204628
:10680000984701232046237102B010BD8C7F0D00F4
:106810002DE9F0470D46222190460446FFF7FFFE82
:10682000DFF8A490A8442F464745BA463DD017F854
:10683000016B222E06D05C2E04D030461BF036FCB5
:106840000028F1D12368AAEB05029B68294620465F
:1068500098475C212046FFF7E2FE0D2E0AD8072E4E
:106860001CD9A6F10803052B18D8DFE803F00D0F9B
:1068700011171315222E01D05C2E0FD13146204660
:10688000FFF7CDFE3D46CFE76221F8E77421F6E73A
:106890006E21F4E76621F2E77221F0E723683246C1
:1068A000DB68494620469847ECE7BD4205D023689F
:1068B0007A1B9B6829462046984722212046FFF7ED
:1068C000AEFEBDE8F08700BF8F7F0D0013B5044614
:1068D000CDE90021FFF75EFF2046DDE90021FFF74B
:1068E00097FF02232046237102B010BD13B5044662
:1068F000CDE90021FFF74EFF2046DDE90021FFF73B
:1069000087FF01232046237102B010BD8842F8B5ED
:1069100004460D46164614D9904213D2A2F1100631
:10692000751AA1F110072C44B74218D01CB131469A
:10693000204601F07EF9304601F0FEF8103E103C92
:10694000F2E70CD0B5420AD01CB12946204601F02E
:1069500070F9284601F0F0F810351034F2E7F8BD70
:1069600070B50E1E054611DD3001FFF7C3F9044670
:1069700058B1D5E9001201EB0212FFF7C7FF2868F2
:10698000FFF7C0F92C60AE60012070BD0024F6E76F
:1069900010B5044680680368DB689847E3681844CC
:1069A000E06010BD7047084611B10B685B6818477E
:1069B0007047704770477047704738B504460D46BA
:1069C00000682E211BF0B4FE2368C31A2B6023B18C
:1069D000037803B1013023682060184638BD10B534
:1069E00010210446FEF781FA204610BD10B504219F
:1069F0000446FEF77AFA204610BD10B5042104467D
:106A0000FEF773FA204610BDFEF738BF08B5FEF753
:106A1000D7F9B0FA80F0400908BD704710B50C46B0
:106A200001F004FD844210D001F01CFE844205D127
:106A300001F018FEBDE8104001F093BC2CB12368B2
:106A400020465B68BDE81040184710BD0B68036026
:106A50004B68436013B15A6801325A60704713B5EE
:106A6000044608460191FEF7B5F901990246204611
:106A700002B0BDE81040FFF739BF13B50446084621
:106A80000191FEF7A7F923680199DB6802462046C9
:106A900002B0BDE81040184707B503688DF807102D
:106AA000DB6801220DF10701984703B05DF804FB94
:106AB0002DE9F74FD0E900844FF0140A00930AFB48
:106AC00004F4184BA41017465C434546002C21DD06
:106AD00066100AFB06F005EB00093A46B9F804B067
:106AE000285801915F4528BF5A461BF052FE0028E6
:106AF00001994FF001030BD15F4503D1009A137048
:106B00003446E3E7FCD9A61B09F11405013EF7E77B
:106B1000F9DBF5E7A5EB08050248AD10684303B0C3
:106B2000BDE8F08FCDCCCCCC7FB50369057E01915B
:106B300003B3F9B1002600F10C04039603A901A8E0
:106B4000FFF73BFF0146A8B10DF10B03039A8DF847
:106B50000B602046FFF7ACFF9DF80B3053B1236864
:106B6000142404FB0034083434F9023C002BA8BF81
:106B7000DDB2E3E7284604B070BD0EB4F0B58CB0CA
:106B800000AF07F14405044655F8042B7A602B4604
:106B9000202107F11000FD60FFF7D4F81F287A6864
:106BA0001AD900F1080323F007036E46ADEB030D7D
:106BB000411C2B466846FD60FFF7C4F8021E04DD49
:106BC00023686946DB6820469847B5463037BD469E
:106BD000BDE8F04003B070470028F7D023680246B4
:106BE000DB6807F1100120469847EFE710B5094C24
:106BF0002378BFF35B8FDB0709D42046FEF788F9C3
:106C000028B12046FEF789F903481AF0B4FD03487D
:106C100010BD00BF54CF0320B3690B00D8CB0320B5
:106C200010B5094C2378BFF35B8FDB0709D42046EE
:106C3000FEF76EF928B12046FEF76FF903481AF007
:106C40009AFD034810BD00BF58CF03201B6A0B00FC
:106C5000DCCB032038B500250446C0E90055C0E967
:106C600004558560856140F8245FFEF7F7FDFFF766
:106C7000BDFFE061FFF7D4FF25732062204638BDD9
:106C800010B50A4C2378BFF35B8FDB070CD420468A
:106C9000FEF73EF940B10648FFF7DCFF2046FEF75D
:106CA0003CF904481AF067FD014810BD50CF03209D
:106CB00060CF0320F9710B00024A03490348002307
:106CC000FEF74CBFDD6F0B00696F0B00E96E0B0028
:106CD00000231A4619461846FEF740BF37B58D689F
:106CE00004466846FFF7B2FE6A4629462046FFF78B
:106CF0001DFD01A8FEF780F9204603B030BD37B571
:106D0000CD6804466846FFF7A1FE6A46294620463C
:106D1000FFF7E8FC01A8FEF76FF9204603B030BD8D
:106D200037B50D6904466846FFF790FE6A46294666
:106D30002046FFF780FC01A8FEF75EF9204603B06D
:106D400030BD000070B58AB00D46014604A8FFF7BB
:106D5000C5FF144E04A8FFF701FDE8B104A9684679
:106D6000FFF7CDFF02983146FFF750FE044610B101
:106D70002C1E18BF012401A8FEF73EF9002CE9D013
:106D800004A96846FFF7CCFF6846FFF78AFC286035
:106D900001A8FEF731F9DDE705A8FEF72DF90AB0E5
:106DA00070BD00BF957F0D0037B50C4620461349D6
:106DB0001546FEF705F850B901F038FB4FF41651AF
:106DC00001F024FB03B0BDE8304001F02FBB0C49BB
:106DD0002046FDF7F5FF78B94FF4165301A9284670
:106DE0000193FFF7AFFF01F03DFC019901F0B6FA06
:106DF00001F038FC03B030BD0020FBE79A7F0D00A6
:106E0000A17F0D0070B5D0E900531426044606FB9F
:106E10000356AE4205D005F10800FFF7F3FF143525
:106E2000F7E72068FEF76EFF204670BD10B50446F8
:106E30000C30FFF7E7FF2046FFF700F8204610BDB3
:106E400010B5044B044640F8043BFFF7EFFF204623
:106E500010BD00BFE87E0D0010B50446FFF7F0FF3F
:106E600020462421FEF741F8204610BD10B5034B03
:106E700003600446FFF7E4FF204610BD3C800D0090
:106E800010B50446FFF7F2FF20462421FEF72DF847
:106E9000204610BD0A6802604A6842600022C0E9CC
:106EA000022210B502618C688460CC68C4600C69F1
:106EB0008A60CA6004610A6110BD0022C0E9002234
:106EC00010B582600C6804604C6844608C680A608D
:106ED0004A6084608A6010BD10B503680446186873
:106EE000FEF7D4FC204610BD2DE9F04F87B0804658
:106EF00003931C4B5B68C3F30803894616466BB9C2
:106F0000FFF7BEFE044600F12403406A0593FFF735
:106F10007BFD237B2BB105A8FFF7DEFF07B0BDE8A3
:106F2000F08F01232373D4E900535FFA89F905EB4D
:106F3000830AAA4512D055F8047B3146381DFFF765
:106F4000F3FD8145F5D33B68039A0092D3F808B06E
:106F50004A46334641463846D847EAE7002323737A
:106F6000D9E700BF00ED00E02DE9F74F9B461A4B33
:106F70005B68C3F308038046894616466BB9FFF782
:106F80007FFE044600F12403406A0193FFF73CFDB5
:106F9000237B2BB101A8FFF79FFF03B0BDE8F08F63
:106FA00001232373D4E90053F6B205EB830A554558
:106FB0000ED055F8047B5946381DFFF7B5FD8642C3
:106FC000F5D33B684A46DB68414638469847EEE7CA
:106FD00000232373DEE700BF00ED00E02DE9F3415D
:106FE000164B5B68C3F3080305460F461BBBFFF750
:106FF00047FE00F124030446406A0193FFF704FDB5
:10700000D4E90063462406EB8308B04509D101A802
:10701000FFF762FFA542B4BF0020012002B0BDE827
:10702000F08156F8040B39460430FFF77DFD8442A9
:10703000A8BF0446E9E70020F0E700BF00ED00E04C
:10704000F8B5D0E901539D4204460E460DDB6F1C96
:10705000002F006804DDB900FEF75CFE18B9F8BD2A
:10706000FEF750FE00202060A7602768626807EBEB
:1070700085019200A2EB8502081D1BF0A7F947F8D5
:1070800025606368013363600120E8E737B500F1EC
:1070900024030446406A01930D46FFF7B5FCD4E98A
:1070A000003203EB8202934219460BD00968A942D1
:1070B00003F10403F7D101A8FFF70EFF00252846CE
:1070C00003B030BD29462046FFF7BAFF0546002829
:1070D000F1D06368012B01D1FFF7EEFD01A8FFF7A6
:1070E000FBFEECE770B50446D0E900020B4600EB6E
:1070F000820282420FD001461D6851F8046BAE42F5
:1071000007D1521A1BF062F96368013B63600120EA
:1071100070BD0846EDE70020FAE71FB500F1240333
:107120000446406A01910393FFF76EFC01A92046D3
:10713000FFF7D8FF18B163680BB9FFF7C9FD03A8C3
:10714000FFF7CAFE04B010BD70B5D0E9045618238D
:10715000044603FB0656AE4215D005F11001204649
:10716000FFF7C0FF63680BB9FFF7B2FDE06929695B
:107170000368DB689847696919B1206A0368DB68AE
:1071800098471835E7E7D4E90453182606FB035659
:10719000AE4204D0284600F0CFFC1835F8E70023B3
:1071A000636170BD73B50446FFF792FD04F12403DB
:1071B000606A0193FFF728FC2046FFF7C5FF01A88E
:1071C000FFF78AFE606A08B1FEF750FBD4E904536A
:1071D000182606FB0356AE4204D0284600F0ACFC4D
:1071E0001835F8E72069FEF78DFD2068FEF78AFD67
:1071F000204602B070BD00000148FFF7D3BF00BFBA
:1072000060CF03208842F8B504460D46164615D9CE
:10721000904214D2A2F11406751AA1F114072C445D
:10722000B7421AD01CB131462046FFF733FE06F1B3
:107230000800FFF7E7FD143E143CF1E70DD0B5421E
:107240000BD01CB129462046FFF724FE05F10800AB
:10725000FFF7D8FD14351434F1E7F8BD2DE9F04FF0
:10726000904695B000230391D8F804100A93462263
:107270009942C0E90033C0E90233C0E90433CDE9E3
:1072800008330446027623DCD8E90057142303FBB5
:107290000757AF423BD029460BA800F0CAFC0BA908
:1072A0000FA8099E00F0C5FCDDE9091399421BDA1D
:1072B000089B099A03EB061603EB0212314606F10E
:1072C0001000FFF723FBEEB9099B0133099311E08E
:1072D00008A8FFF745FB0028D6D108A8FEF7AEFDA9
:1072E000204615B0BDE8F08F013108A8FFF738FB44
:1072F0000028DDD10FA800F01FFC0BA800F01CFC3B
:107300001435C6E70FA9304600F093FCDCE70026F1
:10731000CDE90B660D964FF01409DDE908239E4276
:107320007CDA3301D35806930BB90136F5E7002315
:10733000079309FB06F302930BAD07A906A8FFF715
:107340003CFB82460028F0D04FF000038DF8173048
:107350000146079A0DF117032846FFF7A9FB9DF890
:1073600017700190002F4AD1BDF81C30ADF84030A5
:10737000CDE911774FF6FF73CDF83CA0ADF8423060
:107380001397D5E90132934217DB03F1010ABAF1F1
:10739000000F30DD09FB0AF0FEF7ACFC834660B35A
:1073A000D5E9001209FB0212FFF72CFF2868FEF74F
:1073B000A9FCC5F800B0C5F808A02B68019A09FB24
:1073C000023A6A68514609FB02320AF11400FFF7DB
:1073D00019FFBAF1000F03D00FA95046FFF75AFD6D
:1073E0006B6801336B6011A8FFF70CFD3FB10BA870
:1073F000FFF708FD71E7BB46D8E70127F3E7019BDC
:107400002D6809FB0355069B1B782BB9D8F8003073
:10741000029A13441B7CEB8008358EE721682260BA
:1074200062686360A36809920A9A0A93E368A2609B
:107430000B9A0B932369E2600C9A0C9363692261A7
:107440000D9A0D93039B089162612376CFE70000AC
:10745000F0B5044687B00D462646194668461746DD
:10746000FDF793FE0B4B46F8043B694603A8FDF776
:107470008CFE03AA39463046FFF7F0FE03A8FDF75D
:1074800043FE6846FDF740FE034B2360204625621D
:1074900007B0F0BDE87E0D0024800D00F0B50F466A
:1074A00085B01D490A9C384616461D46FDF788FCE6
:1074B000C0B9A4B1294601A8FFF7FFFC1749242051
:1074C00001F0F4F8054630B101AB32462146FFF732
:1074D000BFFF134B2B6001A8FDF716FE2C4620467C
:1074E00005B0F0BD0F493846FDF76AFC90B9002C95
:1074F000F5D0294601A8FFF7E0FC0849242001F057
:10750000D5F805460028E6D001AB32462146FFF704
:107510009FFFE0E70024E2E7A97F0D0018820D003D
:107520003C800D00AD7F0D00014B024A1A60704790
:107530005CCF0320BE7F0D002DE9F047089DD0F8F9
:10754000209004460E461746984600F06FFF81458E
:107550004CD02B79190704D56A6954492046FFF7A6
:107560000CFBB8F1000F0DD05B212046FFF794FA19
:1075700041462046FFF781FA23684D49DB68022225
:10758000204698472B79DA0723D5D5F808802F2194
:1075900040461BF012F908B100F1010841462046AF
:1075A000FFF76BFA2B799B0708D53A212046FFF7A6
:1075B00073FAEA683F492046FFF7DFFA2A79236821
:1075C00012F0040FDB6814BF3B493C4902222046FD
:1075D00098472B7958071DD529690B461A4613F889
:1075E000010B60B1202808D11946F7E7344800F0B4
:1075F00082F90028ADD0BDE8F0872828EED12368B5
:10760000521ADB682046984723682E49DB6804221B
:107610002046984700213846FEF798FA0146204652
:10762000FFF72BFA23682549DB680222204698479A
:107630001EB131462046FFF720FA2B7913F0300FA8
:107640002CD023682049DB680222204698472B79FA
:10765000D9060AD523681D49DB68072220469847CA
:10766000AA691B492046FFF788FA2B799A0611D59B
:10767000DB0605D523681049DB68022220469847BF
:1076800023681449DB6820460A229847E9692046A6
:10769000FFF7F3F95D212046FFF7FEF923680E4955
:1076A000DB6820460222BDE8F0471847C27F0D0084
:1076B000C97F0D00E0800D00CC7F0D00D17F0D0053
:1076C00088CF0320CF7F0D00D47F0D00D77F0D0022
:1076D000DF7F0D00E27F0D00ED7F0D002DE9F04111
:1076E0000446076A0D46164600F0A0FE874207D002
:1076F000206A036832462946DB68BDE8F041184736
:10770000034800F0F8F80028F2D0BDE8F08100BF8F
:1077100088CF03202DE9F04385B0D0F820900C9C51
:1077200005460F4690461E4600F080FE814505D175
:10773000494800F0E0F8002840F08A802B6A474A68
:1077400000924FF000096846CDE902398DF80490A7
:10775000FFF72DF849464046FEF7F8F940498046C4
:1077600001226846FFF7B2F84146FFF778F93FB1CA
:107770003C4901226846FFF7A9F83946FFF76FF93F
:107780003EB1394901226846FFF7A0F83146FFF7BC
:1077900066F92379DF070ED5A6682F2130461BF046
:1077A0000CF800B1461C314901226846FFF78EF8FB
:1077B0003146FFF754F923799E0707D52C49022259
:1077C0006846FFF783F8E168FEF7FEFF2379580764
:1077D00014D5266933461F4613F8012B2AB1202AF7
:1077E00001D11E46F7E7282AF5D122490222684630
:1077F000FFF76CF8BA1B3146FFF778F823791907C1
:1078000007D51D4901226846FFF760F86169FEF758
:10781000EDFF2379DA0607D5184904226846FFF7F9
:1078200055F8A169FEF7D0FF23799B0607D51449C7
:1078300006226846FFF74AF8E169FFF710F9684643
:10784000FEF79FFF286A0F4903680222DB6898470A
:1078500005B0BDE8F08300BF88CF03200C800D0089
:107860009F7F0D00C9B70D00FAC10D00E6B00D00F5
:10787000F07F0D00F37F0D0079B30D00F67F0D0052
:10788000FB7F0D00ED7F0D00002340681A46FEF7D8
:10789000C1B9406800220221FEF7CCB9002240683D
:1078A0001146FEF7BFB9002240681146FEF7CAB97B
:1078B000002340681A461946FEF7CCB900234068F9
:1078C0001A461946FEF7CEB940680021FEF7F2B914
:1078D00040680021FEF7F6B94068002281F00101FE
:1078E000FEF7C8B940680022FEF7D4B9002240680C
:1078F0001146FEF7D7B9002240681146FEF7C2B91B
:1079000040680021FEF7EEB92DE9F04395B014462A
:107910000D460746FEF7CEFD00211C220DA8009162
:107920001AF06EFD40230C9320466B460CAA0021F2
:10793000FDF7F4FF044600284BD102460121686898
:10794000FEF780F90221804622466868FEF77AF940
:10795000009E81462146002E3BD0002939D1736814
:10796000022B03D00A2B11D0F669F4E7B8F1000F0F
:10797000FAD0716906A8043107ADFEF7DFFD0FCD1F
:107980003C1D0FC42B6823704146EDE7B9F1000F91
:10799000EAD07469102201A81AF032FD06238DF88E
:1079A000143001AD04F108031834186859682A46E8
:1079B00003C20833A3421546F7D101A906A807ADB3
:1079C000FEF786FD0FCD3C1D0FC42B682370494682
:1079D000CAE70098FDF79AFF384615B0BDE8F08376
:1079E000033802289ABF024B53F820000148704721
:1079F0007C800D0088CF032008B500224068FEF788
:107A000069F9BDE80840FFF7EBBF0000024B034AED
:107A10001A6000225A60704788CF032090800D00C2
:107A2000F8B506460D468F180024BD420CD03368C9
:107A300015F8011B9B6830469847031E01DB1C4468
:107A4000F3E7002C08BF1C462046F8BD13B50446DA
:107A5000084659B10191FDF7BDF923680199DB682A
:107A60000246204602B0BDE81040184702B010BDE3
:107A700003689B68184730B58BB00023012A8DF846
:107A8000243098BF0A2209AC0D46B1FBF2F101FB8C
:107A9000125303F0FF03092B94BF30333733DBB2AB
:107AA000AA4204F8013DEFD92146FFF7CFFF0BB002
:107AB00030BD70B505460E461446FEF727F850B1A6
:107AC00044EA062444EA0540FEF718F8BDE8704091
:107AD000E720FEF723B870BD014B00229A60704783
:107AE00090CF032010B50446FDF7E8FEE060236860
:107AF00020465B699847002808DAFDF7DFFEE36857
:107B0000C01AA3689842F2D34FF0FF3010BD2DE9A0
:107B1000F04107460C468E180D46B542A5EB040809
:107B200007D03846FFF7DEFF031E02DB05F8013BF6
:107B3000F3E74046BDE8F08110B504460068FEF763
:107B4000E1F8204610BD10B50446006808B1FEF704
:107B5000D9F80023C4E90133236010BD38B50446C9
:107B60000D4600680131FEF7D5F810B1C4E90005F3
:107B7000012038BD10B50368044623B143688B4229
:107B800001D3012010BD2046FFF7E8FF0028F9D0FF
:107B9000A368002BF5D122681370F2E737B50D46C4
:107BA000114601920446FFF7E5FF019A28B92046E5
:107BB000FFF7C9FF204603B030BDA2602946206808
:107BC0001AF0F6FB2268A3680021D154F2E70023E3
:107BD00013B5C0E9003304468360037341B108461E
:107BE0000191FDF7F7F8019902462046FFF7D6FF0D
:107BF000204602B010BD38B5054600680C4670B18D
:107C00006A688B689A4208D3096831B11AF09CFD02
:107C1000A368AB600023A36038BDFEF773F8236848
:107C20002B6063686B60A368AB600023C4E900331A
:107C3000F1E710B50023C0E9003304468360037305
:107C4000FFF7D9FF204610BD884210B5044605D085
:107C50000B682BB18A681946FFF7A0FF204610BDBC
:107C6000FFF771FFFAE710B500230446C0E90033BF
:107C700083600373FFF7E8FF204610BD13B5044689
:107C800059B108460191FDF7A5F801990246204631
:107C9000FFF784FF204602B010BDFFF754FFF9E75D
:107CA000054B02221A60054B054A9A600020C3E981
:107CB0000000FDF75BBF00BFACCF0320A0CF0320C7
:107CC0000000FFFF13B503688DF807101C6C01223C
:107CD0004FF0FF330DF10701A04702B010BD10B403
:107CE00003681C6C4FF0FF33A4465DF8044B6047FB
:107CF00013B5134602688DF80710146C0DF10701D7
:107D00000122A04702B010BD10B54369B3F8862028
:107D1000B3F884309A42044608D06369B3F88420EB
:107D2000511CA3F884101344187910BD03681B6913
:107D300098470028F1D14FF0FF30F6E770474369CC
:107D40001868C043C00F704770470000064B994247
:107D500010B500F10C0405D0084611F0EDFE002826
:107D600008BF0024204610BD107F0D0010B5AC21C7
:107D70000446FDF7BAF8204610BDAC21FDF7B5B8B2
:107D80002DE9F0414FF0000886B01C46C0F8048091
:107D900005460E4617464146102202A81AF030FB4F
:107DA000631C09D04FF47A73B4FBF3F203FB124463
:107DB000CDE902285C4304946869102300930068AD
:107DC00002AB41F2050240F6FF71FDF7AFFD00285E
:107DD00007DAFDF7DFFF03686B60002006B0BDE83F
:107DE000F0816869002300683A463146FDF7BEFD20
:107DF000031EEEDB1846F1E738B584690A4B0360D1
:107E000005467CB16368013B63605BB9236820462B
:107E10009B689847A368013BA3601BB92368204671
:107E2000DB689847284638BD08810D0010B5044628
:107E3000FFF7E2FF20461C21FDF757F8204610BD52
:107E400030B587B0044601AD6846FEF777FB0FCD2D
:107E500004340FC42B68237007B030BD70B54D6972
:107E6000054B04468C3544F8043B06460FCD0FC441
:107E70002B682370304670BD807F0D002DE9F043E4
:107E80009846036893B00D4600241B6B06461746C0
:107E9000984728466B46224621460094FDF73EFD52
:107EA0000546002863D1009B002B4BD05B69002B5B
:107EB00048D006A8FEF7FEFA009B5C696378022BA7
:107EC00004D1211D06A8FFF7BBFF26E00A2B24D111
:107ED0001122294601A81AF093FAA368002B38D082
:107EE00004F108030DF1040C18341868596862464F
:107EF00003C20833A3429446F7D1062301A90CA874
:107F00008DF81430FEF7E4FA0DF1340CBCE80F00E4
:107F100007AC0FC4DCF80030237006A8FEF7EAFABD
:107F200080B1336807ADD3F82490124B0C930FCD7A
:107F30000DAC0FC42B6823703A4643460CA930465B
:107F4000C84705460098FDF7E1FC284613B0BDE898
:107F5000F083E368002BC3D14FF6FF70D4F8109084
:107F6000FDF7C4FC8145BBD104F11401AAE7254605
:107F7000E8E700BF807F0D0038B543691A68002A22
:107F8000054610DAB3F88620B3F884309A420AD155
:107F900003681B699847044628B92B6828461B6B61
:107FA0009847204638BD0120FCE710B54369B3F877
:107FB0008620B3F884309A42044605D06369B3F84A
:107FC00084201344187910BD03681B699847002862
:107FD000F4D14FF0FF30F6E7F8B543691746B3F830
:107FE0008620B3F884309A4205460E4616D0696959
:107FF000B1F88430B1F88640E41ABC4228BF3C4650
:1080000004332246194430461AF0D2F96A69B2F8AC
:1080100084302344A2F884302046F8BD03681B69ED
:1080200098470028E3D14FF0FF34F5E74269002379
:10803000A2F884304269A2F886307047F0B51F4636
:1080400003680C461B6B8BB0054616469847237D8C
:10805000042B0CBF02200A2006220121FDF78EFC12
:108060006B6918606B691B68002B07DA2B68284660
:108070001B6B0024984720460BB0F0BD2846FFF745
:10808000D5FFB7B1002303A9F8B20393ADF81030C0
:10809000FDF71CFC0028E9D16869062300930068FD
:1080A00003AB41F20B0240F6FF71FDF73FFC0028E5
:1080B000DCD11C22002103A81AF0A2F9237D042B95
:1080C0001DD14FF407733046ADF80C30FDF716FCA8
:1080D000ADF80E006068FDF709FC04906B691C2286
:1080E000186803A9FDF732FC0028BFD104340FCC77
:1080F0006D698C350FC523682B700124BBE740F6F2
:108100001C233046ADF80C30FDF7F8FB05AEADF89A
:108110000E00231D04F1140718685968324603C283
:108120000833BB421646F7D1D8E7000030B54269A4
:10813000B2F886308BB004462BB1B2F884209A4254
:1081400001D1FFF773FF61690868002818DBB1F8F7
:1081500086507F2D14D804310823C5F180022944AC
:10816000FDF7FCFB002813DD6369B3F886200AB92C
:10817000A3F884206369B3F886201044A3F886002E
:108180006369B3F88600B3F88430C01A0BB030BD11
:10819000FDF700FE03680B2BF2D0FDF7FBFD036833
:1081A0000B2BEDD020230025CDE90235FDF7F2FDA4
:1081B00003680193084B0949009302AA2B46322019
:1081C000FDF7BCFC63691868FDF7B8FB63694FF005
:1081D000FF321A60D4E700BFD3800D00CC800D00C1
:1081E00010B5436904461868002801DBFDF7A6FBBB
:1081F00063694FF0FF321A606069112200218C30F0
:108200001AF0FEF82046BDE81040FFF70FBF10B58A
:10821000002304460160C0F884308830FEF74AF934
:10822000204610BD73B500234FF47A72C0E90132C5
:108230000E4A0361026043610446AC200191FCF7E1
:108240004CFE051E05F10C0608D00123C5E90133DB
:10825000074B01992B603046FFF7D9FF2046C4E950
:108260000565FFF7E3FE02B070BD00BF08810D0099
:10827000EC800D0010B54FF0FF310446FFF7D2FF40
:10828000204610BD10B504460068002801DBFDF74C
:1082900055FB204610BD0C30FFF7F4BF024B1A68A7
:1082A000024B1A60704700BFE0CB0320B0CF032021
:1082B00070474174704708B5007CFDF7C7FB20EAA2
:1082C000E07008BD08B5007CFDF7A0FB20EAE07077
:1082D00008BD08B5007CFDF7A9FB40EAE07008BDC9
:1082E00008B5007CFDF79AFB40EAE07008BD007C11
:1082F000FDF7A4BB37B5457C04462DB1207C03B007
:10830000BDE83040FDF77ABB007C0191FDF79EFB94
:1083100000280199F2DC284603B030BD10B51421C5
:108320000446FCF7E2FD204610BD000010B54FF4F6
:108330007A730446084611460022C4E90123044B1F
:108340002360012320746374FDF790FB204610BD69
:1083500074810D00007C0023FDF780BB0022FFF735
:10836000F9BF007CFDF742BB41747047704770470E
:1083700008B50021007CFDF7A9FB40EAE07008BDCC
:1083800008B50121007CFDF7A1FB40EAE07008BDC3
:1083900008B5007CFDF792FB20EAE07008BD08B547
:1083A000007CFDF783FB20EAE07008BD13B50446AE
:1083B000007C0191FDF782FB0028019901DC607CC3
:1083C00020B1207CFDF78AFB20EAE07002B010BDEE
:1083D000007CFDF78BBB10B514210446FCF785FD2E
:1083E000204610BD10B54FF47A73044608460021AC
:1083F000C4E90113044B2360012320746374114604
:10840000FDF73CFB204610BDA8810D00007C00223A
:10841000FDF73CBB007CFDF741BB10B514220446C0
:10842000002119F0EDFF204610BD000010B50F4CE3
:1084300088B003A8FFF7F1FF2178BFF35B8F11F03D
:1084400001010FD120460191FCF762FD019948B16D
:1084500003AA0748FFF7C6FF2046FCF75EFD054864
:1084600019F089F9024808B010BD00BFB4CF03204D
:10847000B8CF03206D830B00002240681146FDF742
:10848000E1BB002240681146FDF7FCBB00224068BA
:108490001146FDF707BC40680022FDF7FBBB4068B2
:1084A000002281F00101FDF7E5BB002340681A4678
:1084B0001946FDF7D7BB002340681A461946FDF759
:1084C000C9BB002240681146FDF7ACBB40680022E2
:1084D0000221FDF7AFBB002340681A46FDF79ABBA7
:1084E000024B04225A60024A1A607047CCCF032024
:1084F000DC810D00014B1860704700BF6CCC03207D
:1085000008B50B4B43B1FFF791FF03681B69984710
:10851000002801DDAFF30080064B43B100F0A2F864
:1085200003681B699847002801DDAFF3008008BD90
:10853000000000000000000008B5FFF7E1FFFDF7B4
:10854000BDF9014B186008BDDCCF03200548064A81
:10855000064908B5121A19F02BFF054B054A1A6097
:1085600008BD00BF00F4032004F4032090C50D00F3
:1085700000F403201E1C279A07B5002300931A4617
:108580006FF07701FDF71CFB03B05DF804FB000002
:1085900007B543880A2B08D0502B0BD1094B1B6819
:1085A0004BB103B05DF804EB1847FFF7E5FF03B0EC
:1085B0005DF804FB002300931A466FF07701FDF786
:1085C000FFFAF4E7D8CF032010B512480021FDF7D9
:1085D000F1FB114B1A68114B9A42114B0CBF01224F
:1085E00000221A7001D0FFF7B1FFFDF757F90446DA
:1085F00019F060FF0B4B13B12046AFF30080002150
:108600000848FDF7FFFABDE8104007480021FDF7D4
:10861000CDBA00BFF5840B0000F403201E1C279A7E
:10862000D4CF03200000000091850B0070470000AC
:1086300038B5044614252A46002119F0E1FE2580AC
:108640004025074925812846258200F031F8044954
:108650006060284600F02CF8E060204638BD00BF7E
:1086600018820D0030B50E4D2978BFF35B8F11F0E5
:10867000010487B011D12846FCF74AFC68B101A873
:10868000FFF7D6FF01AA21460648FFF74FFE28460E
:10869000FCF743FC044819F06EF8024807B030BDFF
:1086A000E0CF0320E4CF03202D860B00FCF715BCA0
:1086B000FCF715BC37B5051D0446284601910BF0A3
:1086C000E7FC0023C4E91D33C4E92033C4E92233A5
:1086D00084F87C30054B019923602846143363608D
:1086E00003B0BDE830400BF0BDBC00BF9CA70D003F
:1086F00037B5051D0446284601910BF0C9FC00233F
:10870000C4E91F33C4E921336367A4F87830054B0B
:108710000199236028461433636003B0BDE83040FC
:108720000BF06CBC6CA70D002DE9F04FDFF8449204
:108730002DED028BD9F80040631C08EE100A83B0BF
:10874000C9F80030002C40F0ED80DFF82CB2794BF6
:10875000794F7A4EDFF824A201221A70DBF800303C
:10876000774A9D68BC61C7E90024C7E90244C7E9AC
:10877000044407F11C0000F07DFEDBF80010704A95
:108780003D624FF0FF384D68C7F800A0C7F824805D
:10879000C6E90024C6E90244C6E90444B46106F10E
:1087A0001C0000F067FEC6E90858DBF80010654DB4
:1087B000634ACB68C6F800A0C5E90024C5E90244B5
:1087C000C5E90444AC6105F11C00019300F052FEC0
:1087D000019BC5F800A0DFF8A8A1C5E90838394613
:1087E0005046FFF785FF584A10460BF051FC564A99
:1087F000564942F8081CA2F108071431B960314605
:10880000534E1467C2E91E44C2E92044A2F87440E2
:1088100042F8044C10460BF0F1FB29463046FFF7B6
:1088200067FF29464B48FFF763FF3269DBF80030EA
:10883000C7F878A042F40052474F3261474A9D681A
:10884000C6F874A0C7E90024C7E90244C7E9044494
:10885000BC6107F11C0000F00DFE414EDBF800107A
:108860003E4ADFF820A1C7F800A0C7E9085806F182
:108870001C004D68B461C6E90024C6E90244C6E99B
:10888000044400F0F7FDDBF80010344AD1F80CB0D6
:10889000C6F800A0C6E90858324DC5E90024C5E96C
:1088A0000244C5E90444AC6105F11C0000F0E2FD9E
:1088B000C5E908B8DFF8D0B0DFF8D080C5F800A06F
:1088C00039465846FFF7F6FE40460BF0E1FB264BD3
:1088D00088F87840A8F10807C8E91C44C8E91F4493
:1088E000C8E9214448F8083C48F8044C14331F4CAC
:1088F000BB60314640460BF0B5FB29462046FFF7EA
:10890000D9FE1B482946FFF7D5FE2369C8F870B089
:1089100043F400532361D9F80030C4F874B0013334
:10892000C9F8003018EE100A03B0BDEC028BBDE8A8
:10893000F08F00BFE4CB032018E10320C8E0032040
:10894000A8A80D00F0E00320C0E1032030A10D0035
:1089500048E20320D4E2032090E10320E8A80D00C0
:1089600040E1032068E1032060A10D0080E40320C2
:1089700010E50320FCDF03206CCC0320809F0D005A
:1089800060E30320C09F0D00A0E50320F4E3032073
:1089900070474268511E012A416002D103685B683A
:1089A00018477047044A0B681268036093421EBF61
:1089B0001A6801321A607047FCCF032001607047CB
:1089C00002490348002218F081B900BF19820D0046
:1089D00004D0032010B5034C23680BB9FFF7F0FF58
:1089E000206810BD04D003200048704719820D0094
:1089F00038B5436804465BB10025D4E90132AA4288
:108A000006D953F8250008B1FFF7C3FF0135F4E795
:108A1000606808B1FCF767FAE3685BB10025D4E948
:108A20000223AA4206D953F8250008B1FFF7B1FF87
:108A30000135F4E7E06808B1FCF755FA23691BB982
:108A4000206958B9204638BD00252369585908B116
:108A5000FCF749FA0435182DF7D1F1E7FCF743FA92
:108A6000F0E703685A1E012B10B50446026006D1D8
:108A7000FFF7BEFF2046BDE81040FCF732BA10BD3C
:108A8000054B10B51B6804460068984201D0FFF7FB
:108A9000E8FF204610BD00BFFCCF03200A4A38B5CE
:108AA0000B680D4611688B4218BF1A6804460068AF
:108AB0001CBF01321A60814201D0FFF7D2FF2B6840
:108AC0002360204638BD00BFFCCF0320036823B9D4
:108AD000034A13680133136003600068013870476C
:108AE00000D003202DE9F84F044616460846002A18
:108AF00000F0AD80FFF7EAFFA368013B984205460E
:108B000041D900F104086FF06043984534BF4FEA43
:108B100088074FF0FF373846D4F804A0FCF7DFF998
:108B20008346A0680023984269D1C0F104022A4418
:108B30009200804538BF002200210BEB800019F025
:108B40005FFC3846D4F80C90FCF7C9F90746A068DA
:108B5000002398425AD1C0F104022A449200804571
:108B600038BF0022002107EB800019F049FCC4E95E
:108B700001B8E760BAF1000F4FD1B9F1000F02D090
:108B80004846FCF7B0F97368D4F804900133736079
:108B900059F825300BB32F490868D0B1FFF796FF7D
:108BA00085423ED14868D4F804A0FFF78FFF5AF8F9
:108BB000203007466BB14968304608F037F8436803
:108BC0000133804643605AF82700FFF7E2FE4AF877
:108BD000278059F82500FFF7DCFE49F825600025BD
:108BE0002E46A368AB4232D9E36853F8250020B182
:108BF000FFF7CFFEE36843F825600135F1E76268CF
:108C000052F823204BF8232001338CE7E26852F816
:108C1000232047F8232001339BE75046FCF763F9F4
:108C2000ABE74868FFF752FF85420ED10868D4F8D9
:108C300004A0FFF74BFF5AF820300746002BC8D09E
:108C40000968304602F0FCFEB9E70831A4E7BDE848
:108C5000F88F00BF38820D002DE9F041214F3B789D
:108C6000BFF35B8FDB0706460C46154606D4384635
:108C7000FCF74EF910B13846FCF74FF91A4908686D
:108C8000F0B1FFF723FFA84248680DD1FFF71EFFA0
:108C90000346F16851F82520AAB104B323682046A1
:108CA0005B68BDE8F0411847FFF710FFA84205D107
:108CB0000868FFF70BFF2B460546EAE70831DEE7B9
:108CC0004FF0FF33E5E76268501C6060581C18BF26
:108CD000023241F825401CBF626041F82340BDE8E4
:108CE000F08100BFF8CF032038820D0010B5084C8A
:108CF0002378BFF35B8FDB0708D42046FCF708F925
:108D000020B12046BDE81040FCF707B910BD00BFF8
:108D10000CD003202DE9F04F30238360C24B01605B
:108D200087B00646C0220021184619F069FBBF4BE8
:108D30007060C0221846002119F062FBBC4CBD4D8A
:108D4000F06014220021201D19F05AFB34612560C7
:108D5000FFF74AFEB84C03882B80002201231146FE
:108D6000204604F067FB22463046B449B44CDFF895
:108D7000C4A3DFF8C4B3B34DDFF8C093DFF8C083FA
:108D8000FFF7B0FEB04A0121104618F00FF8304648
:108D9000AD4AAE49FFF7A6FEAD4AAE4B13600127C0
:108DA0000023C2E90233C2E90533C2E90733137471
:108DB000938482F8643057601146A74A6760226046
:108DC000A1602046194600F00FFF22463046A34915
:108DD000A34CFFF787FEA34AA349576011603046B2
:108DE000A249FFF77FFEA24AA249576011603046B0
:108DF000A149FFF777FEA14A67602260FFF7EAFD0D
:108E00002246A0609E499F4C3046FFF76BFE9E4A6B
:108E1000CAF8002000239D4A676019462260C4F802
:108E200008A01A462046CAE90233CAE90533CAE94E
:108E30000733CAE90933CAE90B33AAF810308AF8B4
:108E40001230CAF834308AF84330CAF8047000F09F
:108E50006FFB224630468E498E4CFFF743FE8E4A0A
:108E6000CBF8002000238D4A676019462260C4F8C1
:108E700008B01A462046CBE90233CBE90533CBE9EB
:108E80000733CBE90933CBE90B33ABF810308BF860
:108E90001230CBF834308BF84330CBF8047000F04C
:108EA00003FB224630467E497E4CFFF71BFE7E4A7E
:108EB0007E495760116030467D49FFF713FE7D4AB9
:108EC0007D495760116030467C49FFF70BFE002357
:108ED0007B4A6F60C5E90233C5E90433C5E906334F
:108EE000C5E90833C5E90A33C5E90C33C5E90E33D2
:108EF000C5E91033C5E91233C5E91433C5E91633A2
:108F0000C5E91833C5E91A33C5E91C33C5E91E3371
:108F10002A602946C5E920333A46C5E92233C5E926
:108F20002433C5E92633C5E92833C5E92A33C5E921
:108F30002C33C5E92E33C5F8C03085F8C43020463F
:108F40000BF03AFD224630465E495F4CFFF7CAFD02
:108F50005E4A5F495760116030465E49FFF7C2FDC7
:108F60005D4A5E495760116030465D49FFF7BAFDC2
:108F70005C4A3946104605F015F83046594A5A49B8
:108F8000FFF7B0FD594A3946104604F03FFA304623
:108F9000564A5749FFF7A6FD564A3946104617F07C
:108FA00015FF3046534A5449FFF79CFD534B544A32
:108FB0001A601A465F600023C2E90233C2E9053332
:108FC000C2E9073313745362936282F82431114665
:108FD0004C4A67602260A1602046194600F06CFE92
:108FE000224630464849494CFFF77CFD484A4949EA
:108FF0005760116030464849FFF774FD474A4849B9
:109000005760116030464749FFF76CFD464A67607C
:109010002260FFF7DFFC2246A0604449444C304602
:10902000FFF760FD8EE000BFB4DD0320C4DC032049
:10903000ACDC03209CD50320A8D5032074DF0320DB
:1090400030D00320A4D2032084DD0320C0E003201D
:1090500014D1032040830D0098910D00A8DF032058
:109060009CDD032074DE032020A20D0048E00320D5
:1090700084DE03205CA20D0044E003207C910D00FF
:109080009CDF0320D4D00320D8820D00F0910D0086
:10909000B8DF0320E0D00320C8820D00BC910D0092
:1090A000B4DF032098D0032078D0032040920D0035
:1090B000B0DF032088D0032058920D00ACDF0320DE
:1090C0008CA20D0040E003203CD0032048D00320B8
:1090D00070920D00A4DF032058D003208CA30D0054
:1090E0003CE0032010D00320A0DF0320C8D70320DA
:1090F00078DF032090DD0320C4E003207CD103202F
:1091000050830D00709C0D00E8DF0320A8DD0320D4
:109110007CDE03203CAA0D00A8E003208CDE0320A7
:1091200078AA0D00A4E00320549C0D00DCDF03208E
:10913000ECD0032034D4032078D40320BCD4032003
:109140002CD503208F4AC9F8002000238E4A67607F
:1091500019462260C4F808901A462046C9E902332D
:10916000C9E90533C9E90733C9E90933C9E90B334B
:10917000C9E90D3389F81030C9F83C3089F86C30F2
:10918000C9F8047000F094FA224630467F49804CBA
:10919000FFF7A8FC7F4AC8F8002000237E4A6760DA
:1091A00019462260C4F808801A462046C8E90233EE
:1091B000C8E90533C8E90733C8E90933C8E90B33FF
:1091C000C8E90D3388F81030C8F83C3088F86C30A6
:1091D000C8F8047000F024FA224630466F49704CFB
:1091E000FFF780FC6F4A70495760116030466F4945
:1091F000FFF778FC6E4A6F495760116030466E4940
:10920000FFF770FC00236D4A6760C4E90233C4E9CC
:109210000433C4E90633C4E90833C4E90A33C4E9B2
:109220000C33C4E90E33C4E91033C4E91233C4E982
:109230001433C4E91633C4E91833C4E91A33C4E952
:109240001C33C4E91E332260C4E92033C4E922334D
:10925000C4E92433C4E92633C4E92833C4E92A33F2
:10926000C4E92C33C4E92E33C4F8C03084F8C430C8
:10927000534B3A462146184611F0A8FD504B514930
:109280001A463046FFF72EFC4F4A504B576013608A
:1092900030464F49FFF726FC4E4A4F4B136057604C
:1092A00030464E49FFF71EFC4D4A3946104608F03D
:1092B000B1FD30464A4A4B49FFF714FC4A4A4B4B32
:1092C0005760136030464A49FFF70CFC494A4A4B45
:1092D0005760136030464949FFF704FC484A494B40
:1092E0005760136030464849FFF7FCFB474A484B3C
:1092F0005760136030464749FFF7F4FB4649474B38
:10930000CDF808B0CDE9031930466946CDE9003AF9
:10931000CDF8148001F0ECFA4148F768FFF7D6FB6E
:109320003E4B47F820303F48F768FFF7CFFB47F840
:1093300020A03D48F768FFF7C9FB47F820B03B483D
:10934000F768FFF7C3FB47F820503948F568FFF787
:10935000BDFB314945F820100C48F568FFF7B6FB16
:1093600045F820900D48F568FFF7B0FB45F82080E0
:109370001448F568FFF7AAFB45F82040304607B0CF
:10938000BDE8F08FF8820D00C89C0D00F8DF0320C7
:10939000F8D00320E8820D00949C0D00F4DF032038
:1093A0006CD3032080D00320189D0D00F0DF032034
:1093B00090D00320309D0D00ECDF0320A8AA0D0003
:1093C000ACD00320A0E0032050D00320489D0D0026
:1093D000E4DF032060D00320A8AB0D009CE0032055
:1093E00020D00320E0DF032068D0032090860D000A
:1093F000A0DE032070D0032038860D0098DE032005
:1094000004D1032064860D009CDE03200CD10320D0
:109410000C860D0094DE03207CD1032014D10320A0
:10942000A8DF0320B8DF0320B4DF032040E00320DF
:10943000E8DF032010B5074C02212046FFF76AFC45
:10944000054B06481C60064B21461C60BDE81040D9
:10945000FFF7B4BAC0D00320FCCF0320A8DC032060
:1094600008D00320024B1B680BB9FFF7E3BF70471E
:10947000FCCF032038B5002303600446084DFFF7F6
:10948000F1FF084A2B6812682360934206D0FFF769
:109490002DFC2B6823601A6801321A60204638BD03
:1094A00008D00320FCCF032038B584680546ACB94A
:1094B0004420FBF712FD1A4B0482C0E90034C0E9D6
:1094C0000244C0E90544C0E90744C0E90944C0E9D1
:1094D0000B448474446380F84340A860AB6811492E
:1094E0002E225A74AB682C229A74AA680023C2E90F
:1094F0000513C2E90713C2E9091391600A49D36051
:1095000008681063D362AA685063084A1068AA68A2
:10951000C15C1A4401330B2B82F83810F7D138BDE7
:10952000C8820D00EF7F0D001CB30D00F0CB0320AF
:1095300038B584680546ACB94420FBF7CEFC1A4B1D
:109540000482C0E90034C0E90244C0E90544C0E92E
:109550000744C0E90944C0E90B448474446380F8BB
:109560004340A860AB6811492E225A74AB682C2284
:109570009A74AA680023C2E90513C2E90713C2E975
:10958000091391600A49D36008681063D362AA681E
:109590005063084A1068AA68C15C1A4401330B2B57
:1095A00082F83810F7D138BDD8820D00EF7F0D005A
:1095B0001CB30D00F0CB0320064B10B5044603602E
:1095C000806810B103685B6898472046FFF7E0F9B0
:1095D000204610BDBC910D0010B50446FFF7ECFF0E
:1095E0002046FBF77EFC204610BD0000064B10B560
:1095F00004460360806810B103685B6898472046A2
:10960000FFF7C6F9204610BDF0910D0010B50446D5
:10961000FFF7ECFF2046FBF764FC204610BD00007E
:1096200038B584680546B4B97020FBF756FCC0E92C
:109630000244C0E90544C0E90744C0E90944C0E95F
:109640000B44C0E90D44154B446003600474C463CB
:1096500080F86C40A860AB682E212C22C3E905126B
:109660000F49104A9A600022C3E90712C3E90912A0
:10967000C3E90B12DA605A630B4A10689863AB684F
:10968000D8630A4BAA681B684032591E0A3311F886
:10969000010F42F8040B9942F9D138BDE8820D0060
:1096A00010C10D00EF7F0D001CB30D00F0CB0320A7
:1096B00038B584680546B4B97020FBF70EFCC0E9E4
:1096C0000244C0E90544C0E90744C0E90944C0E9CF
:1096D0000B44C0E90D44154B446003600474C4633B
:1096E00080F86C40A860AB682E212C22C3E90512DB
:1096F0000F49104A9A600022C3E90712C3E9091210
:10970000C3E90B12DA605A630B4A10689863AB68BE
:10971000D8630A4BAA681B684032591E0A3311F8F5
:10972000010F42F8040B9942F9D138BDF8820D00BF
:1097300010C10D00EF7F0D001CB30D00F0CB032016
:10974000064B10B504460360806810B103685B687F
:1097500098472046FFF71CF9204610BD949C0D0049
:1097600010B50446FFF7ECFF2046FBF7BAFB204696
:1097700010BD0000064B10B504460360806810B1B0
:1097800003685B6898472046FFF702F9204610BD42
:10979000C89C0D0010B50446FFF7ECFF2046FBF710
:1097A000A0FB204610BD00000D4B10B5036090F8E3
:1097B000433004467BB1806808B1FBF794FB6069D5
:1097C00008B1FBF790FBE06908B1FBF78CFB606A1E
:1097D00008B1FBF788FB2046FFF7DAF8204610BDFA
:1097E000C8820D0010B50446FFF7DEFF2046FBF7E8
:1097F00078FB204610BD00000D4B10B5036090F8BB
:10980000433004467BB1806808B1FBF76CFB6069AC
:1098100008B1FBF768FBE06908B1FBF764FB606A1D
:1098200008B1FBF760FB2046FFF7B2F8204610BDF9
:10983000D8820D0010B50446FFF7DEFF2046FBF787
:1098400050FB204610BD00000D4B10B5036090F892
:109850006C3004467BB1806808B1FBF744FBE069DB
:1098600008B1FBF740FB606A08B1FBF73CFBE06A1C
:1098700008B1FBF738FB2046FFF78AF8204610BDF9
:10988000E8820D0010B50446FFF7DEFF2046FBF727
:1098900028FB204610BD00000D4B10B5036090F86A
:1098A0006C3004467BB1806808B1FBF71CFBE069B3
:1098B00008B1FBF718FB606A08B1FBF714FBE06A1C
:1098C00008B1FBF710FB2046FFF762F8204610BDF9
:1098D000F8820D0010B50446FFF7DEFF2046FBF7C7
:1098E00000FB204610BD000038B584680546ACB9C1
:1098F0004420FBF7F2FA1A4B0482C0E90034C0E9B5
:109900000244C0E90544C0E90744C0E90944C0E98C
:109910000B448474446380F84340A860AB681149E9
:109920002E225A74AB682C229A74AA680023C2E9CA
:109930000513C2E90713C2E9091391600A49D3600C
:1099400008681063D362AA685063084A1068AA685E
:10995000C15C1A4401330B2B82F83810F7D138BDA3
:10996000C8820D00EF7F0D001CB30D00F0CB03206B
:1099700038B584680546ACB94420FBF7AEFA1A4BFB
:109980000482C0E90034C0E90244C0E90544C0E9EA
:109990000744C0E90944C0E90B448474446380F877
:1099A0004340A860AB6811492E225A74AB682C2240
:1099B0009A74AA680023C2E90513C2E90713C2E931
:1099C000091391600A49D36008681063D362AA68DA
:1099D0005063084A1068AA68C15C1A4401330B2B13
:1099E00082F83810F7D138BDD8820D00EF7F0D0016
:1099F0001CB30D00F0CB0320064B10B504460360EA
:109A0000806810B103685B6898472046FEF7C0FF86
:109A1000204610BDACA20D0010B50446FFF7ECFFC8
:109A20002046FBF75EFA204610BD0000064B10B53D
:109A300004460360806810B103685B68984720465D
:109A4000FEF7A6FF204610BDE0A20D0010B50446AB
:109A5000FFF7ECFF2046FBF744FA204610BD00005C
:109A600038B584680546B4B97020FBF736FAC0E90A
:109A70000244C0E90544C0E90744C0E90944C0E91B
:109A80000B44C0E90D44154B446003600474C46387
:109A900080F86C40A860AB682E212C22C3E9051227
:109AA0000F49104A9A600022C3E90712C3E909125C
:109AB000C3E90B12DA605A630B4A10689863AB680B
:109AC000D8630A4BAA681B684032591E0A3311F842
:109AD000010F42F8040B9942F9D138BDE8820D001C
